S0030000FC
S113E000CE100A1F0001037EB6008693B71039862E
S113E01000B710248600B71035CEB600DF98CEB70F
S113E020FFDF9ACE0000DFAC8E005FBDE357CE0069
S113E03041DF69B610208A03B7102086D09768CCD8
S113E0403F0DDD6BBDE1B87F00A47C00A47F00A67A
S113E050B6103C842027358603B79800B698008410
S113E0607F26128612B79800B69800840227068687
S113E0700197A62017B6D00C810F261086AAB7D018
S113E0800CB6D00C81AA2604860297A67F00A5BDF3
S113E090E34FBDE0B796A6270597A5BDE0B77F007F
S113E0A0A5BDE39E810D271996A627F297A5BDE38A
S113E0B09E810D270C20E7BDE378CEE640BDE51830
S113E0C0397F00A796A581012704860397A70F8EA1
S113E0D0005F7F00A47C00A4BDE508863EBDE3CAC2
S113E0E05FBDE544CE006B3A811827E2817F27DECD
S113E0F0810826055A2DD720E8810D26075D2717AC
S113E100A7002013A7005CC1232F08CEE68ABDE533
S113E1101820BB812F26CA7F00C07F00967F0097FE
S113E1205FCE006BDFAEBDE306BDE2F1CE008E3AFA
S113E130BDE1ADA700810D2736BDE3162731BDE251
S113E140F85CC1082F09CEE68ABDE5187EE0CE81D1
S113E1502F26177D00C026095AD7A8CEE9177EE1DD
S113E160A8CEE6A2BDE5187EE0CEBDE20720BAD770
S113E170A8CEE54EDFB0DEB018CE008EE600C1FFBB
S113E1802609CEE684BDE5187EE0CE3CCB033ADF1B
S113E190B0385F5CA60118A10026DB081808D1A8D6
S113E1A02DF1DEB00909EE00AD007EE0CE81612DD7
S113E1B006817A2E02802039CE009CC6086F0008A2
S113E1C05A2EFA3950595841424353000204060763
S113E1D0080901010100000001A600363CBDE3CAA4
S113E1E0862DBDE3CAE607A60ECE00603A4D27038E
S113E1F0BDE4F0BDE4FF3832393CCEE1C4BDE1D921
S113E20008815326F8383936373CBDE1AD81302DCD
S113E2102281392F0A81412D1A81462E168B0984B9
S113E2200FCE0096C604680169005A2EF9AA01A708
S113E2300120037C00C0383332397F00C07F00A83E
S113E2407F00967F0097BDE306BDE2F1BDE2077D46
S113E25000C026087C00A8BDE2F820ED397F00A8A4
S113E2607F00967F0097BDE54481182704817F26AF
S113E270037EE0CE7F00C0BDE2077D00C026057CA2
S113E28000A820E2397D00A827059697BDE29039C1
S113E2908C103F27109C9825129C9A220E37E6007A
S113E2A0C1FF332703BDE2C6BDE2BAA700A1002720
S113E2B0083CCEE69DBDE518383937C602F7103B59
S113E2C0A700C603201837C616F7103BC6FFE700A1
S113E2D0C617200A37C606F7103BA700C607260153
S113E2E05FF7103B333CCE0D060926FD387F103B0B
S113E2F0393CDEAEA60038393CDEAE0820043CDEF4
S113E300AE09DFAE3839BDE2F1BDE3162605BDE244
S113E310F820F3810D39812C2706812027028109F9
S113E32039BDE3162702810D39BDE39E27188117F5
S113E3302605BDE39E27FB817F27088118270481DA
S113E3400126037EE0CE39368601B74000323936E5
S113E3508600B740003239CE00C418CEE371CC7EBB
S113E36003A1002705A7001AEF013A8C010026F14A
S113E37039865006CF7EE371363C96A5810026058A
S113E380BDE449201681012605BDE488200DCED0C8
S113E3900081022703CED008BDE3F33832393C862E
S113E3A055B7103A86AAB7103A96A52605BDE45982
S113E3B0201681012605BDE494200DCED0008102F3
S113E3C02703CED008BDE41E383936373CD6A526FF
S113E3D005BDE4662016C1012605BDE4AE200DCEC0
S113E3E0D000C1022703CED008BDE4293833327CE3
S113E3F000A9398622A7028638A7028640A702868A
S113E40010A7028600B7D0048600B7D0058613A7EC
S113E410008607A70086BBA7018605A70239A601C7
S113E42084012704A603847F397D00A427108D0E60
S113E430810D2604860A2006810A260C860DE60133
S113E440C40427FA847FA703398630B7102B8600CB
S113E450B7102C860CB7102D39B6102E8420270542
S113E460B6102F847F397D00A427108D0E810D26D0
S113E47004860A2006810A260E860DF6102EC58013
S113E48027F9847FB7102F39CE98008603A700861A
S113E49016A70039CE9800A60036843032270686A7
S113E4A00197C2200484012704A601847F398D18B2
S113E4B07D00A42712810D2606860A8D0B20088173
S113E4C00A2604860D8D0139CE9800E600C5022780
S113E4D0F7847FA70139FFFFFFFFFFFFFFFF4444DD
S113E4E04444840F8B3081392F028B07BDE3CA3932
S113E4F036A600368DE8328DE9320839BDE4F0BD28
S113E500E4F08620BDE3CA39860DBDE3CA8600BDAA
S113E510E3CA860D7F00A939BDE50836A60081044B
S113E5202714BDE3CA08BDE39E27F1811726EDBD7C
S113E530E39E27FB20E6323936BDE50296A9811415
S113E5402FF73239BDE39E4D27FABDE3CA390541A1
S113E5505353454DEB2405425245414BE6EE0442EC
S113E560554C4BE7A90742554C4B414C4CE7AD0485
S113E57043414C4CF9FD0444554D50E7B60545451F
S113E5804D4F44E84B0446494C4CE89B02474FFA34
S113E590560448454C50F60404484F5354FBD104E8
S113E5A04C4F4144FC6F064D454D4F5259E903040D
S113E5B04D4F5645E9D7064F4646534554FD83070C
S113E5C050524F43454544FA440852454749535431
S113E5D04552FDC40653544F504154FB2C0554522C
S113E5E0414345FAE706564552494659FC67013FFF
S113E5F0F6040558424F4F54FE34017EFEAC0341ED
S113E600534DEB24024246E89B04434F5059E9D74B
S113E610054552415345E7A9024D44E7B6024D4D25
S113E620E903025244FDC402524DFDC40452454163
S113E63044E9D702544DFBD10454455354FEADFF75
S113E64042554646414C4F20332E34202865787479
S113E65029202D2042697420557365722046617308
S113E6607420467269656E646C7920416964207413
S113E6706F204C6F676963616C204F7065726174C1
S113E680696F6E04576861743F04546F6F204C6F58
S113E6906E670446756C6C044F702D2004726F6DA8
S113E6A02D04436F6D6D616E643F044261642061AB
S113E6B07267756D656E74044E6F20686F73742095
S113E6C0706F727404646F6E650463686B73756D48
S113E6D0206572726F72046572726F722061646475
S113E6E072200472637672206572726F7204BDE3E5
S113E6F0062604BDE78539812D2631BDE2F8BDE249
S113E700F1BDE3212606BDE1B87EE6EEBDE23ABDE9
S113E710E3212707CEE6ABBDE51839BDE7945D2BB1
S113E72008CE009C3A6F006F017EE6EEBDE23ABD72
S113E730E3212707CEE6ABBDE51839BDE7945D2C90
S113E740ADDE96A60036863FBDE290E60032BDE21D
S113E75090C13F270CDFB0CE00B0BDE4FCBDE7851F
S113E760397F00967F00973CBDE794385D2A0ACE36
S113E770E693BDE518BDE7853918CE009C183ACD5F
S113E780EF007EE6EEBDE508CE009CC604BDE4FCC9
S113E7905A2EFA395FCE009C3AEE009C9626013937
S113E7A05C5CC1062FEFC6FF39DE982003CE103F14
S113E7B086FFBDE2D439DEAADFB0C6803ADFB2BD3F
S113E7C0E3062735BDE23A7D00A82726BDE32126CE
S113E7D021DE96DFB0C6803ADFB2BDE306271ABD5C
S113E7E0E23A7D00A8270BBDE3062606DE96DFB2DB
S113E7F02007CEE6ABBDE51839DCB0DDAAC4F0DDF8
S113E800B0BDE508CE00B0BDE4FCDEB05FBDE4FF02
S113E8105CC1102DF85FDEB03AA60081202504818A
S113E8207A23028620BDE3CA5CC1102DE9BDE32929
S113E830DCB0C30010DDB01A93B2220E1A830000BC
S113E84026BFDCB21A83FFF025B739BDE3062734AF
S113E850BDE23A7D00A8273CBDE3212637DC96DDE6
S113E860B0C307FFDDB2BDE3062711BDE23A7D0068
S113E870A82721BDE306261CDE96DFB2DEB0DF98B2
S113E880DEB2DF9ABDE508CE0098BDE4FCCE009A66
S113E890BDE4FC39CEE6ABBDE51839BDE306BDE207
S113E8A03A7D00A8274FBDE316264ADE96DFB0BDA9
S113E8B0E306BDE23A7D00A8273BBDE3212636DE10
S113E8C096DFB286FF97C1BDE3062711BDE23A7D0C
S113E8D000A82721BDE306261C969797C1BDE3290E
S113E8E0DEB096C1BDE290A10026119CB2270508B6
S113E8F0DFB020E939CEE6ABBDE51839CE00B0BDB6
S113E900E4FC39BDE3062718BDE23ABDE306270758
S113E910CEE6ABBDE518397D00A82704DE96DFAA54
S113E920BDE508CE00AABDE4FCDEAABDE4FF7F007D
S113E930967F0097BDE25DBDE1ADDEAA812027315F
S113E940810A273E812B2743815E2748812D274456
S113E95081082740812F2745813D2741814F274347
S113E960810D276F812E276ECEE6A2BDE5187EE9C4
S113E97020BDE28508DFAA8FC40F27037EE9297E24
S113E980E920BDE28508DFAA7EE923BDE28508DF30
S113E990AA7EE920BDE28509DFAA7EE920BDE285E1
S113E9A07EE920DC9693AA81002606C180231320E9
S113E9B00881FF2604C1812409CEE68ABDE5187EBC
S113E9C0E920830001D7C3BDE502CE00C3BDE4FF47
S113E9D07EE920BDE28539BDE23A7D00A8272BBD42
S113E9E0E3162626DE96DFB0BDE23A7D00A8271A9C
S113E9F0BDE3212615DE96DFB2BDE23ABDE306266D
S113EA00097D00A8270BDE96200ACEE6ABBDE518EB
S113EA1039DEB008DFB4DEB49CB023289CB22224D3
S113EA20DCB293B0D3B4DDB4DEB2BDE329A6003CBE
S113EA30DEB4BDE290A100262809DFB4389CB027DB
S113EA401F0920E6DEB0BDE329A6003CDEB4BDE22A
S113EA5090A100260C08DFB4389CB227030820E6F6
S113EA603938CE00B4BDE4FC39EA7BEA8EEAA1EA87
S113EA70B0EABDEAD0EAE8EB03EB10496D6D6564DA
S113EA80206D6F646520696C6C6567616C04457208
S113EA90726F7220696E204D6E65207461626C65C0
S113EAA004496C6C6567616C20626974206F700442
S113EAB042616420617267756D656E74044D6E65A4
S113EAC06D6F6E6963206E6F7420666F756E64047B
S113EAD0556E6B6E6F776E206164647265737369D3
S113EAE06E67206D6F646504496E646578656420A3
S113EAF061646472657373696E6720617373756DA5
S113EB0065640453796E746178206572726F72045F
S113EB104272616E6368206F7574206F6620726143
S113EB206E676504CE0000DFBEBDE3062713BDE2B9
S113EB303ABDE3062707CEEAB0BDE51839DE96DF15
S113EB40BEDEBEDFB0BDE508CE00B0BDE4FCBDF363
S113EB5076BDE538863EBDE4ECBDEC0597BC815E30
S113EB602715812B2711812D270D812F2709813D01
S113EB7027058100260439BDE508BDE502BDE5028F
S113EB80BDE502BDE502BDE502BDEC4EC1052F08A1
S113EB90CEEABDBDE518202FC100272EBDEC959609
S113EBA0B581FF2608CEEABDBDE518201ABDECCD1F
S113EBB081002607CE0000DFB6200F4A16CEEA6990
S113EBC03A3AEE00BDE5187F00BC96BC815E27048E
S113EBD0812D2607DEBE09DFBE2027810A27088192
S113EBE02B2704810D261BDEB62606DEB0DFBE20F1
S113EBF011810A2704812B2605DEBE08DFB6DEB6A6
S113EC00DFBE7EEB415F860DCE006B3AA7005CC190
S113EC10232DF55FBDE544817F27318118272D81A0
S113EC20012729812E2725810327218104271D817E
S113EC300826055A2EDE20CDCE006B3ABDE1ADA7E5
S113EC4000C1232C015CBDEC7A26C9394F398620DA
S113EC509791CE006BDFAEBDE3065FBDE2F1BDE28E
S113EC60F8BDE3162713BDEC7A270EBDE1ADCE0047
S113EC708E3AA7005CC1052FE239810A2716810D5F
S113EC802712815E270E812F270A812B2706812DCB
S113EC902702813D39CEEFF718CE008E2003C60639
S113ECA03AA6008104260586FF97B53918A10026E7
S113ECB0EDA60118A10126E6A60218A10226DFA6E8
S113ECC00318A10326D8EC0497B4D7B53986049762
S113ECD0C17F00C2DEAE8C008E271BEC0008812CA5
S113ECE026F4C1592606860297C1200AC158260671
S113ECF0860197C12000BDE30681232607BDE2F803
S113ED00860097C1D6B5C10226037EED6BC10126EC
S113ED10037EED70C10526037EED77C10826037ED0
S113ED20EDA6C10726037EEDB0C10326037EEDB92F
S113ED30C10426037EEDC7C11526037EEDF9C1107B
S113ED4026037EEE1AC10926037EEE23C112260392
S113ED507EEE3BC11126037EEE44C11326037EEEF4
S113ED6063C11426037EEE638602398618BDEFEC78
S113ED7096B4BDEFEC4F39BDEFCE8104260139DCEA
S113ED8096DEB00808DFB893B8DDB81A83007F2395
S113ED90091A83FF80240386093996B4BDEFEC96E3
S113EDA0B9BDEFEC4F3996C181002604860397C1A3
S113EDB096C181002603860139860097C397B286DF
S113EDC01897B3BDEEFF3996C1810226098618BD96
S113EDD0EFEC860197C196C181012604BDEF9F39EE
S113EDE096B48B10BDEFECBDEFCE8104270ADC9600
S113EDF0BDEFEC17BDEFEC4F3996C18100260486B8
S113EE000397C196C1810226037C00C2861A97C368
S113EE1097B286CD97B3BDEEFF3996C18100260324
S113EE2086013996C181002604860397C18600971E
S113EE30C397B286CD97B3BDEEFF3996C181002644
S113EE400386013996C1810226037C00C281002613
S113EE5004860397C1861897C397B3861A97B2BDE1
S113EE60EEFF39BDEED98100260386033996C181B0
S113EE700226098618BDEFEC860197C196B4BDEF52
S113EE80ECBDEFCE81042601399697BDEFEC96C117
S113EE9081012606BDE2F8BDE2F8BDEFCE8104266D
S113EEA001399697BDEFEC96B5811426024F39BD12
S113EEB0EFCE8104260139DEB008DFB8DC9693B8C2
S113EEC01A83007F230D1A83FF8024074FBDEFECC4
S113EED086093917BDEFEC4F3996C1D6B5810126A5
S113EEE001398102260139C114260796B480089796
S113EEF0B439C113260796B4800C97B4394F3996A8
S113EF00C1810327138100272C8102274181012716
S113EF104C8104275786063996C3BDEFE496B4BDE9
S113EF20EFECBDEFCE8104260139DC96BDEFEC1782
S113EF30BDEFEC4F3996C3BDEFE496B4BDEFECBD25
S113EF40EFCE81042601399697BDEFEC4F3996B385
S113EF50BDEFE496B48B2097B4BDEF9F3996B2BD54
S113EF60EFE496B48B2097B4BDEF9F39BDEFCE810B
S113EF700426013996C3BDEFE496A881022E0E96AD
S113EF80B48B10BDEFEC9697BDEFEC4F3996B48B74
S113EF9030BDEFECDC96BDEFEC17BDEFEC4F3996CE
S113EFA0B4BDEFECBDEFCE8104260139812C2703DB
S113EFB0860839BDE2F8BDE2F18159270A81582754
S113EFC006FEEAE8BDE5189697BDEFEC4F39BDE2C1
S113EFD03ABDEC7A2705BDE31626067D00A8270175
S113EFE03986043981002703BDEFEC39DEB0BDE278
S113EFF090BDE4FFDFB039414241201B014142583A
S113F000203A01414259203A024144434189034193
S113F010444342C903414444418B0341444442CBE9
S113F0200341444444C308414E44418403414E4493
S113F03042C40341534C20680441534C41480141AC
S113F040534C42580141534C4405014153522067EB
S113F05004415352414701415352425701424343F1
S113F06020240542434C521D14424353202505429B
S113F0704551202705424745202C05424754202E60
S113F0800542484920220542485320240542495458
S113F09041850342495442C503424C45202F054251
S113F0A04C4F202505424C53202305424C54202D1F
S113F0B005424D49202B05424E4520260542504C21
S113F0C0202A054252412020054252434C1F13423C
S113F0D0524E202105425253451E13425345541C9F
S113F0E014425352208D054256432028054256535C
S113F0F0202905434241201101434C43200C014384
S113F1004C49200E01434C52206F04434C52414F52
S113F11001434C52425F01434C56200A01434D5077
S113F120418103434D5042C103434F4D2063044387
S113F1304F4D414301434F4D4253014350442083BB
S113F14015435058208C09435059208C1144414197
S113F150201901444543206A04444543414A01447B
S113F1604543425A0144455320340144455820093B
S113F17001444559200902454F52418803454F52E5
S113F18042C80346444956030149444956020149C9
S113F1904E43206C04494E43414C01494E43425C6A
S113F1A001494E53203101494E58200801494E5916
S113F1B02008024A4D50206E044A5352208D074CB9
S113F1C044414186034C444142C6034C444420CC50
S113F1D0084C4453208E084C445820CE094C4459C2
S113F1E020CE114C534C2068044C534C4148014CE4
S113F1F0534C4258014C534C4405014C5352206427
S113F200044C53524144014C53524254014C535206
S113F2104404014D554C203D014E45472060044EA9
S113F22045474140014E45474250014E4F50200151
S113F230014F5241418A034F524142CA035053483D
S113F240413601505348423701505348583C01500D
S113F2505348593C0250554C41320150554C4233AD
S113F2600150554C58380150554C593802524F4CA6
S113F270206904524F4C414901524F4C42590152AA
S113F2804F52206604524F52414601524F52425649
S113F29001525449203B01525453203901534241F5
S113F2A020100153424341820353424342C2035359
S113F2B04543200D01534549200F01534556200B6A
S113F2C00153544141870753544142C7075354449F
S113F2D020CD0753544F50CF01535453208F07531D
S113F2E0545820CF1053545920CF125355424180C3
S113F2F00353554242C0035355424483085357496C
S113F300203F01544142201601544150200601542B
S113F31042412017015450412007015445535400E1
S113F32001545354206D04545354414D01545354C7
S113F330425D015453582030015453592030025433
S113F3405853203501545953203502574149203E22
S113F35001584744588F01584744598F0242525329
S113F3604512164252434C13164253455414174245
S113F370434C52151704DEB0A600C6008118270AB4
S113F380811A270581CD26045C5C5C08DFB6D7C3EF
S113F390A60097B408DFB6815F230F818D270B8108
S113F3A08F270781CF27037EF441D6C3C1022504EA
S113F3B0BDF5FB39D6B45FBDF52A5D2604BDF5FB6A
S113F3C03996B4818D2604C605200A818F270481CD
S113F3D0CF2605C601BDF52AD6B5C1012618D6C368
S113F3E0C100270E96B4C602BDF52A5D2604BDF5FC
S113F3F0FB39BDF54D39D6B5C10526107D00C327AF
S113F40004BDF5FB39BDF54DBDF58339D6B5C1173E
S113F4102704C11626117D00C32704BDF5FB39BDA1
S113F420F54DBDF5DB2006BDF54DBDF567BDE50227
S113F430BDF5DBD6B5C1132704C1162603BDF5837C
S113F44039817F222AD6C3C1022504BDF5FB398444
S113F4506F5FBDF52A5D2604BDF5FB39BDF54D96FC
S113F460B484F081602604BDF56739BDF5E83981BF
S113F47087270481C72604BDF5FB3984CF5FBDF51A
S113F4802A5D2604BDF5FB3996B484CF818D26040C
S113F490C6072016818F2604C607200E81CF2604B6
S113F4A0C61020068183260CC608BDF52A5D2604F5
S113F4B0BDF5FB39D6B5C1032708C1072704C10828
S113F4C0263196B484CF8183260FD6C3C102250981
S113F4D0C615BDF52AC608D7B5D6C3C1012704C1D0
S113F4E003260C96B484B081A02704BDF5FB39BD76
S113F4F0F5A539D6C3C1012704C102261396B484E5
S113F500CFD6B5C1092604C6112002C612BDF52AFC
S113F510D6C3C102250C96B484B081A02704BDF5DE
S113F520FB39C608D7B5BDF5A539CEEFF7A104263A
S113F5300F5D2704E1052608E605D7B5DFBA5C3977
S113F54037C6063AE600C1043326E25F39DEBAA6BE
S113F55000BDE4ECA601BDE4ECA602BDE4ECA60308
S113F560BDE4ECBDE50239BDF5DB862CBDE4ECD68B
S113F570C3C1012704C1032604865920028658BD4D
S113F580E4EC39DEB6E60008DFB65D2B033A20046E
S113F590095C26FCDFB8BDE5028624BDE4ECCE00A0
S113F5A0B8BDE4FC39BDF54D96B484B0818026170E
S113F5B08623BDE4ECBDF5DBD6B5C108270139DEF1
S113F5C0B6BDE4F0DFB63981902604BDF5DB3981A0
S113F5D0A02604BDF56739BDF5E8398624BDE4EC01
S113F5E0DEB6BDE4F0DFB6398624BDE4ECDEB6BD9C
S113F5F0E4FCDFB639494C4C4F50043CCEF5F5BD24
S113F600E51B3839CEF60BBDE5183941534D205B67
S113F6103C616464723E5D20204C696E65206173B8
S113F6206D2F64697361736D0D20205B2F2C3D5D1C
S113F630202053616D6520616464722C2020202099
S113F6402020205B5E2C2D5D202050726576206189
S113F6506464722C202020202020205B2B2C435417
S113F6604C4A5D204E65787420616464720D2020DC
S113F6705B43525D20204E657874206F70636F6425
S113F680652C202020202020202020202020202025
S113F6902020202020202020202020202020202066
S113F6A05B43544C412C2E5D2020517569740D42EE
S113F6B046203C61646472313E203C616464723271
S113F6C03E205B3C646174613E5D2020426C6F634C
S113F6D06B2066696C6C206D656D6F72790D42529A
S113F6E0205B2D5D5B3C616464723E5D20536574F8
S113F6F020757020626B7074207461626C650D42B9
S113F700554C4B2020457261736520454550524F3E
S113F7104D2C2020202020202020202020202020AC
S113F72020202042554C4B414C4C202045726173A3
S113F7306520454550524F4D20616E6420434F4E25
S113F7404649470D43414C4C205B3C616464723E26
S113F7505D2043616C6C20737562726F7574696EA1
S113F760650D474F205B3C616464723E5D204578C3
S113F770656375746520636F6465206174206164DA
S113F78064722C202020202020202050524F4345FA
S113F79045442020436F6E74696E756520657865F5
S113F7A0637574696F6E0D45454D4F44205B3C6134
S113F7B06464723E205B3C616464723E5D5D204D16
S113F7C06F6469667920454550524F4D2072616ED1
S113F7D067650D4C4F41442C2056455249465920EB
S113F7E05B545D203C686F73742064776E6C642096
S113F7F0636F6D6D616E643E20204C6F6164206F99
S113F800722076657269667920532D7265636F7212
S113F81064730D4D44205B3C61646472313E205B33
S113F8203C61646472323E5D5D20204D656D6F7293
S113F830792064756D700D4D4D205B3C616464727C
S113F8403E5D206F72205B3C616464723E5D2F20DC
S113F850204D656D6F7279204D6F646966790D2056
S113F860205B2F2C3D5D202053616D652061646415
S113F870722C20205B5E2C2D2C43544C485D205070
S113F88072657620616464722C20205B2B2C4354B7
S113F8904C4A2C53504143455D204E657874206199
S113F8A06464720D20203C616464723E4F20436F97
S113F8B06D70757465206F66667365742C202020E6
S113F8C02020202020202020202020202020202034
S113F8D05B43525D2020517569740D4D4F56452090
S113F8E03C73313E203C73323E205B3C643E5D20E1
S113F8F020426C6F636B206D6F76650D4F464653E7
S113F9004554205B2D5D3C6172673E20204F666646
S113F91073657420666F7220646F776E6C6F6164B8
S113F9200D524D205B502C592C582C412C422C4309
S113F9302C535D20205265676973746572206D6F66
S113F940646966790D53544F504154203C6164649A
S113F950723E2020547261636520756E74696C2058
S113F960616464720D54205B3C6E3E5D20205472D1
S113F970616365206E20696E737472756374696F58
S113F9806E730D544D20205472616E7370617265F4
S113F9906E74206D6F6465202843544C41203D20D3
S113F9A0657869742C2043544C42203D2073656E65
S113F9B0642062726B290D5B43544C575D202057C1
S113F9C06169742C202020202020202020205B43EB
S113F9D0544C582C44454C5D2041626F7274202075
S113F9E0202020202020205B43525D20526570653A
S113F9F06174206C61737420636D640D04BDE3064F
S113FA002713BDE23ABDE3062707CEE6ABBDE518F2
S113FA1039DE96DF60DE6909CCFA29ED0009DF6979
S113FA20BDFA9A7F00C17EFB89360797680F32DDE5
S113FA3066DF6418DF629F699EB2BDFAC7BDE50840
S113FA40BDE1F939BDFB69BDE3297F00C17C00C17B
S113FA50BDFA9A7EFB89BDE3062713BDE23ABDE3F6
S113FA60062707CEE6ABBDE51839DE96DF607F00DA
S113FA70C17C00C1BDFA9A7EFB89309EB2BDFBA851
S113FA80BDFAC7DE6009DF607D00C12606DE6908B5
S113FA9008DF69BDE508BDE1F9395FCE009C18CEE9
S113FAA000B63A183AEE00270AA60018A700863FC7
S113FAB0BDE290CB02C1062FE2DEF5DFB4867E976D
S113FAC0F4CEFA7ADFF5395FCE009C18CE00B63A50
S113FAD0183AEE00270618A600BDE290CB02C10634
S113FAE02FE6DEB4DFF5397F00C37C00C37F00A9B5
S113FAF0BDE3062713BDE23ABDE3062707CEE6AB16
S113FB00BDE51839969797C3D6C337DE60DFB0BD1D
S113FB10F37633D7C3BDFB69BDE329BDE538BDE149
S113FB20F97A00C32705BDE50820DD39BDE30627C2
S113FB3018BDE23ABDE3062707CEE6ABBDE51839AA
S113FB407D00A82704DE96DFAADC601A93AA250AA2
S113FB50DCAAC3000A1A93602208BDFB69BDE3292D
S113FB6020E7BDE508BDE1F939867E97D3CEFBA534
S113FB70DFF2966884BF9768C657FE100E3AFF10EE
S113FB801EB6102084FEB71020BF00B2BE0069FE6E
S113FB9000603CFE00623CFE00643CFC00663637BC
S113FBA0B60068363B309EB2A6009768EC019767B2
S113FBB0D766EC03DD64EC05DD62EC07DD60C608A6
S113FBC03ADF69B610208A03B710208608B7100BF5
S113FBD03996A62607CEE6B8BDE518397F00A4BD40
S113FBE0E347BDFC41BDE39E4D27108101271781EA
S113FBF0022605BDFC0D2003BDFC59BDFC4D4D275F
S113FC00E4BDE3CA20DF7C00A4BDE34F3996A7819D
S113FC1003270DCE102D1C00018D1D1D0001200D8C
S113FC20CED0088660A7028D0F8670A702860DBD10
S113FC30FC59860ABDFC593918CE6F9B180926FC5D
S113FC4039D6A537D6A7D7A5BDE3782016D6A537CC
S113FC50D6A7D7A5BDE39E200AD6A537D6A7D7A594
S113FC60BDE3CA33D7A5397F00C17C00C120037F1F
S113FC7000C17F00C2BDE30626037EFBD1BDE1AD1A
S113FC8081542616BDE2F8BDE2F1BDE2FE810D26E7
S113FC90097F00A496A597A7201B7F00A4BDE34776
S113FCA0BDFC41BDE2F1BDE2F836BDFC59BDE3CA7D
S113FCB032810D26EE96A791A52703BDE329BDFC4D
S113FCC04D4D27F1815326EDBDFC4D4D27FA813969
S113FCD0274E813126DF7F00C3BDFD66D697C00263
S113FCE0BDFD66BDFD6637DC96D3AC8F3309BDFD23
S113FCF066085A271B7D00C226BB7D00C1260596D7
S113FD0097BDE290A10027E6860297C2DFB420DE09
S113FD107D00C226A096C34C279B860397C22095DC
S113FD20BDFD66D697BDFD665A26FAC664BDE2E5FA
S113FD305A26FABDE39ECC7E0DDD6B7C00A4BDE3A8
S113FD404FCEE6C596C281022608CE00B4BDE4FCBF
S113FD50201381012605CEE6E3200781032603CE86
S113FD60E6CABDE51839373CBDFC4D4D27FABDE266
S113FD7007BDFC4D4D27FABDE20796979BC397C379
S113FD803833397F00C3BDE3062728812D26097C3B
S113FD9000C3BDE2F8BDE306BDE23A7D00A8271D1D
S113FDA0BDE3062618DC967D00C32705CC0000932E
S113FDB096DDACBDE508CE00ACBDE4FC39CEE6ABC7
S113FDC0BDE51839CEE1C4BDE306BDE1AD810D2723
S113FDD01CA100270EE60008C15326F5CEE6ABBDF4
S113FDE0E518393CBDE2F8BDE3063826EFBDE1F97C
S113FDF0BDE508BDE1D97F00967F0097BDE25DBDFA
S113FE00E3212707CEE6ABBDE51839363C7D00A8D3
S113FE102714E607A60ECE00603A4D27059696A74E
S113FE2000089697A7003832E600C15327050881D9
S113FE300D26BD39BDE306260BCEC0FFDFB818CEB4
S113FE40C0002036BDE23A7D00A8272718DE96BD03
S113FE50E306260C18DFB8DCB8C300FFDDB8201AAF
S113FE60BDE23A7D00A8270BDE96DFB8BDE3062687
S113FE70022007CEE6ABBDE51839C6FFBDFE9218D9
S113FE80A600A72F1F2E50FC189CB8270418082082
S113FE90EE39CE10008602A708A7096F2D8622A787
S113FEA02B860CA72DE72F1F2E50FC393986FFB760
S113FEB010007F00A4BDE347BDFC41867FBDFC5913
S113FEC0860DBDFC597C00A4CE0070DFAE18CEFEBA
S113FED0EB18A60081042707A70008180820F27F62
S113FEE000C1BDFC9A8E005F7EC0B363617420655F
S10FFEF07662746573742E6F75740D04D3
S113FF7C7EE0CE7EE1B87EE1F97EE2077EE23A7E57
S113FF8CE25D7EE2857EE2F17EE2F87EE2FE7EE3D5
S107FF9C067EE329CD
S113FFA07EE1AD7EE3167EE3217EE3787EE39E7EF2
S113FFB0E3CA7EE4DE7EE4E27EE4EC7EE4F07EE40A
S113FFC0FF7EE4FC7EE5087EE5187EE51B7EE544C5
S106FFD07EE35772
S113FFD600C400C700CA00CD00D000D300D600D9A3
S113FFE600DC00DF00E200E500E800EB00EE00F1D3
S10DFFF600F400F700FA00FDE0003B
S9030000FC
