S0030000FC
S113E000CE000A1F0001037EB6008693973986006E
S113E010972486009735CEB600DFABCEB7FFDFADD1
S113E020CE0000DFBF8E0072BDE34DCE0054DF7C16
S113E03096208A03972086D0977BCC3F0DDD7EBD4A
S113E040E1B27F00B77C00B77F00B9963C842027FB
S113E050358603B79800B69800847F26128612B7D7
S113E0609800B6980084022706860197B92017B64F
S113E070D00C810F261086AAB7D00CB6D00C81AA7A
S113E0802604860297B97F00B8BDE345BDE0B1968A
S113E090B9270597B8BDE0B17F00B8BDE3A0810DF5
S113E0A0271996B927F297B8BDE3A0810D270C2054
S113E0B0E7BDE36ECEE660BDE538397F00BA96B8B9
S113E0C081012704860397BA0F8E00727F00B77C04
S113E0D000B7BDE531863EBDE3F05FBDE564CE002B
S113E0E07E3A811827E2817F27DE810826055A2D92
S113E0F0D720E8810D26075D2717A7002013A70066
S113E1005CC1232F08CEE6AABDE53820BB812F26AB
S113E110CA7F00D37F00A97F00AA5FCE007EDFC143
S113E120BDE2FCBDE2E7CE00A13ABDE1A7A70081B4
S113E1300D2736BDE30C2731BDE2EE5CC1082F0983
S113E140CEE6AABDE5387EE0C8812F26177D00D330
S113E15026095AD7BBCEE8E87EE1A2CEE6C2BDE5E9
S113E160387EE0C8BDE20120BAD7BBCEE56EDFC37E
S113E170DEC318CE00A1E600C1FF2609CEE6A4BD89
S113E180E5387EE0C83CCB033ADFC3385F5CA601C8
S113E19018A10026DB081808D1BB2DF1DEC309093C
S113E1A0EE00AD007EE0C881612D06817A2E0280EA
S113E1B02039CE00AFC6086F00085A2EFA395059DC
S113E1C058414243530002040607080901010100B3
S113E1D0000001A600363CBDE3F0862DBDE3F0E669
S113E1E007A60ECE00733A4D2703BDE50DBDE51C11
S113E1F03832393CCEE1BEBDE1D308815326F8382C
S113E2003936373CBDE1A781302D2281392F0A816F
S113E210412D1A81462E168B09840FCE00A9C604FF
S113E220680169005A2EF9AA01A70120037C00D3D2
S113E230383332397F00D37F00BB7F00A97F00AA27
S113E240BDE2FCBDE2E7BDE2017D00D326087C000F
S113E250BBBDE2EE20ED397F00BB7F00A97F00AAA1
S113E260BDE56481182704817F26037EE0C87F0012
S113E270D3BDE2017D00D326057C00BB20E2397DBD
S113E28000BB270596AABDE28A398C003F27109C63
S113E290AB25129CAD220E37E600C1FF332703BD28
S113E2A0E2BFBDE2B4A700A10027083CCEE6BDBD95
S113E2B0E538383937C602D73BA700C603201637DE
S113E2C0C616D73BC6FFE700C617200937C606D7D0
S113E2D03BA700C60726015FD73B333CCE0D06099A
S113E2E026FD387F003B393CDEC1A60038393CDED0
S113E2F0C10820043CDEC109DFC13839BDE2E7BDF5
S113E300E30C2605BDE2EE20F3810D39812C2706AE
S113E31081202702810939BDE30C2702810D39BD13
S113E320E3A0271881172605BDE3A027FB817F27DB
S113E3300881182704810126037EE0C83936860146
S113E340B740003239368600B740003239CE00D7A4
S113E35018CEE367CC7E03A1002705A7001AEF01BE
S113E3603A8C011326F139865006CF7EE367368650
S113E37040973886809738861397383C96B8810042
S113E3802605BDE46A201681012605BDE4A5200DFD
S113E390CED00081022703CED008BDE41438323930
S113E3A03C96382A049637201F96B82605BDE47A91
S113E3B0201681012605BDE4B1200DCED0008102D6
S113E3C02703CED008BDE43F383936373CD6B826CB
S113E3D005BDE4852016C1012605BDE4CB200DCE84
S113E3E0D000C1022703CED008BDE44A3833323905
S113E3F0BDE3CA3681082709810D2611BDE5253202
S113E400397D00BC270C7A00BC9737323997377CAA
S113E41000BC32398622A7028638A7028640A702AA
S113E4208610A7028600B7D0048600B7D0058613ED
S113E430A7008607A70086BBA7018605A70239A601
S113E4400184012704A603847F397D00B727108D3A
S113E4500E810D2604860A2006810A260C860DE606
S113E46001C40427FA847FA703393CCE051FDF3596
S113E470388600972C860C972D39962E84202704F5
S113E480962F847F397D00B727108D0E810D2604C9
S113E490860A2006810A260C860DD62EC58027FA08
S113E4A0847F972F39CE98008603A7008616A7008D
S113E4B039CE9800A600368430322706860197D5D7
S113E4C0200484012704A601847F398D187D00B7B8
S113E4D02712810D2606860A8D0B2008810A260440
S113E4E0860D8D0139CE9800E600C50227F7847F9A
S113E4F0A70139FFFFFFFFFFFFFFFF4444444484AB
S113E5000F8B3081392F028B07BDE3F03936A6001B
S113E510368DE8328DE9320839BDE50DBDE50D864D
S113E52020BDE3F0397F00BC860D9737123801FC1B
S113E53039BDE525BDE3CA39BDE53136A600810400
S113E5402714BDE3F008BDE3A027F1811726EDBD34
S113E550E3A027FB20E6323936BDE51F96BC8114C3
S113E5602FF73239BDE3A04D27FABDE3F039054159
S113E5705353454DEAF505425245414BE70E0442DB
S113E580554C4BE7C90742554C4B414C4CE7CD0425
S113E59043414C4CF9CE0444554D50E7D60545450E
S113E5A04D4F44E86B0446494C4CE86C02474FFA23
S113E5B0270448454C50F5D504484F5354FBA00458
S113E5C04C4F4144FC3E064D454D4F5259E8D4044E
S113E5D04D4F5645E9A8064F4646534554FD52074C
S113E5E050524F43454544FA150852454749535440
S113E5F04552FD930653544F504154FB0105545268
S113E600414345FABC06564552494659FC36013F3A
S113E610F5D50558424F4F54FE03017EFE7B03415E
S113E620534DEAF5024246E86C04434F5059E9A8B9
S113E630054552415345E7C9024D44E7D6024D4DC5
S113E640E8D4025244FD9302524DFD9304524541D5
S113E65044E9A802544DFBA00454455354FE7CFFE6
S113E66042554646414C4F20332E34202865787459
S113E67029202D20426974205573657220466173E8
S113E6807420467269656E646C79204169642074F3
S113E6906F204C6F676963616C204F7065726174A1
S113E6A0696F6E04576861743F04546F6F204C6F38
S113E6B06E670446756C6C044F702D2004726F6D88
S113E6C02D04436F6D6D616E643F0442616420618B
S113E6D07267756D656E74044E6F20686F73742075
S113E6E0706F727404646F6E650463686B73756D28
S113E6F0206572726F72046572726F722061646455
S113E70072200472637672206572726F7204BDE2C5
S113E710FC2604BDE7A539812D2631BDE2EEBDE21C
S113E720E7BDE3172606BDE1B27EE70EBDE234BDC8
S113E730E3172707CEE6CBBDE53839BDE7B45D2B3B
S113E74008CE00AF3A6F006F017EE70EBDE234BD24
S113E750E3172707CEE6CBBDE53839BDE7B45D2C1A
S113E760ADDEA9A60036863FBDE28AE60032BDE2F0
S113E7708AC13F270CDFC3CE00C3BDE519BDE7A5A1
S113E780397F00A97F00AA3CBDE7B4385D2A0ACED0
S113E790E6B3BDE538BDE7A53918CE00AF183ACDCC
S113E7A0EF007EE70EBDE531CE00AFC604BDE5192E
S113E7B05A2EFA395FCE00AF3AEE009CA9260139F1
S113E7C05C5CC1062FEFC6FF39DEAB2003CE003FF1
S113E7D086FFBDE2CC39DEBDDFC3C6803ADFC5BDEE
S113E7E0E2FC2735BDE2347D00BB2726BDE31726B6
S113E7F021DEA9DFC3C6803ADFC5BDE2FC271ABD0E
S113E800E2347D00BB270BBDE2FC2606DEA9DFC592
S113E8102007CEE6CBBDE53839DCC3DDBDC4F0DD71
S113E820C3BDE531CE00C3BDE519DEC35FBDE51C44
S113E8305CC1102DF85FDEC33AA600812025048157
S113E8407A23028620BDE3F05CC1102DE9BDE31FED
S113E850DCC3C30010DDC31A93C5220E1A83000063
S113E86026BFDCC51A83FFF025B73939BDE2FCBDEC
S113E870E2347D00BB274FBDE30C264ADEA9DFC38B
S113E880BDE2FCBDE2347D00BB273BBDE317263669
S113E890DEA9DFC586FF97D4BDE2FC2711BDE234B3
S113E8A07D00BB2721BDE2FC261C96AA97D4BDE3BC
S113E8B01FDEC396D4BDE28AA10026119CC527059C
S113E8C008DFC320E939CEE6CBBDE53839CE00C335
S113E8D0BDE51939BDE2FC2718BDE234BDE2FC27D1
S113E8E007CEE6CBBDE538397D00BB2704DEA9DFC2
S113E8F0BDBDE531CE00BDBDE519DEBDBDE51C7F66
S113E90000A97F00AABDE257BDE1A7DEBD81202793
S113E91031810A273E812B2743815E2748812D2799
S113E9204481082740812F2745813D2741814F2776
S113E93043810D276F812E276ECEE6C2BDE5387E5A
S113E940E8F1BDE27F08DFBD8FC40F27037EE8FA3C
S113E9507EE8F1BDE27F08DFBD7EE8F4BDE27F081A
S113E960DFBD7EE8F1BDE27F09DFBD7EE8F1BDE2F7
S113E9707F7EE8F1DCA993BD81002606C1802313C4
S113E980200881FF2604C1812409CEE6AABDE5380A
S113E9907EE8F1830001D7D6BDE51FCE00D6BDE5E4
S113E9A01C7EE8F1BDE27F39BDE2347D00BB272B3C
S113E9B0BDE30C2626DEA9DFC3BDE2347D00BB2700
S113E9C01ABDE3172615DEA9DFC5BDE234BDE2FC9E
S113E9D026097D00BB270BDEA9200ACEE6CBBDE5C8
S113E9E03839DEC308DFC7DEC79CC323289CC52291
S113E9F024DCC593C3D3C7DDC7DEC5BDE31FA600B2
S113EA003CDEC7BDE28AA100262809DFC7389CC3C3
S113EA10271F0920E6DEC3BDE31FA6003CDEC7BDF9
S113EA20E28AA100260C08DFC7389CC5270308200A
S113EA30E63938CE00C7BDE51939EA4CEA5FEA7217
S113EA40EA81EA8EEAA1EAB9EAD4EAE1496D6D65A0
S113EA5064206D6F646520696C6C6567616C044546
S113EA6072726F7220696E204D6E65207461626CE3
S113EA706504496C6C6567616C20626974206F7011
S113EA800442616420617267756D656E74044D6E35
S113EA90656D6F6E6963206E6F7420666F756E644A
S113EAA004556E6B6E6F776E206164647265737368
S113EAB0696E67206D6F646504496E64657865648A
S113EAC02061646472657373696E67206173737522
S113EAD06D65640453796E746178206572726F7227
S113EAE0044272616E6368206F7574206F662072D1
S113EAF0616E676504CE0040DFD1BDE2FC2713BD23
S113EB00E234BDE2FC2707CEEA81BDE53839DEA94F
S113EB10DFD1DED1DFC3BDE531CE00C3BDE519BD14
S113EB20F347BDE558863EBDE509BDEBD697CF81D9
S113EB305E2715812B2711812D270D812F27098110
S113EB403D27058100260439BDE531BDE51FBDE53E
S113EB501FBDE51FBDE51FBDE51FBDEC1FC1052F92
S113EB6008CEEA8EBDE538202FC100272EBDEC6605
S113EB7096C881FF2608CEEA8EBDE538201ABDEC82
S113EB809E81002607CE0000DFC9200F4A16CEEA78
S113EB903A3A3AEE00BDE5387F00CF96CF815E2742
S113EBA004812D2607DED109DFD12027810A270819
S113EBB0812B2704810D261BDEC92606DEC3DFD187
S113EBC02011810A2704812B2605DED108DFC9DE46
S113EBD0C9DFD17EEB125F860DCE007E3AA7005CC2
S113EBE0C1232DF55FBDE564817F27318118272D71
S113EBF081012729812E2725810327218104271DAF
S113EC00810826055A2EDE20CDCE007E3ABDE1A72E
S113EC10A700C1232C015CBDEC4B26C9394F3986B2
S113EC202097A4CE007EDFC1BDE2FC5FBDE2E7BD5C
S113EC30E2EEBDE30C2713BDEC4B270EBDE1A7CEDE
S113EC4000A13AA7005CC1052FE239810A27168189
S113EC500D2712815E270E812F270A812B2706811B
S113EC602D2702813D39CEEFC818CE00A12003C65E
S113EC70063AA6008104260586FF97C83918A10024
S113EC8026EDA60118A10126E6A60218A10226DF98
S113EC90A60318A10326D8EC0497C7D7C83986045D
S113ECA097D47F00D5DEC18C00A1271BEC0008811E
S113ECB02C26F4C1592606860297D4200AC1582668
S113ECC006860197D42000BDE2FC81232607BDE21D
S113ECD0EE860097D4D6C8C10226037EED3CC1015E
S113ECE026037EED41C10526037EED48C1082603B7
S113ECF07EED77C10726037EED81C10326037EEDF9
S113ED008AC10426037EED98C11526037EEDCAC18F
S113ED101026037EEDEBC10926037EEDF4C1122615
S113ED20037EEE0CC11126037EEE15C11326037E6D
S113ED30EE34C11426037EEE348602398618BDEF04
S113ED40BD96C7BDEFBD4F39BDEF9F810426013984
S113ED50DCA9DEC30808DFCB93CBDDCB1A83007FAD
S113ED6023091A83FF80240386093996C7BDEFBDA2
S113ED7096CCBDEFBD4F3996D48100260486039707
S113ED80D496D481002603860139860097D697C588
S113ED90861897C6BDEED03996D481022609861806
S113EDA0BDEFBD860197D496D481012604BDEF70D2
S113EDB03996C78B10BDEFBDBDEF9F8104270ADCD8
S113EDC0A9BDEFBD17BDEFBD4F3996D48100260410
S113EDD0860397D496D4810226037C00D5861A979D
S113EDE0D697C586CD97C6BDEED03996D481002678
S113EDF00386013996D481002604860397D48600BD
S113EE0097D697C586CD97C6BDEED03996D48100E6
S113EE10260386013996D4810226037C00D581001D
S113EE202604860397D4861897D697C6861A97C55C
S113EE30BDEED039BDEEAA8100260386033996D4EF
S113EE40810226098618BDEFBD860197D496C7BDF9
S113EE50EFBDBDEF9F810426013996AABDEFBD9693
S113EE60D481012606BDE2EEBDE2EEBDEF9F810432
S113EE7026013996AABDEFBD96C8811426024F39E2
S113EE80BDEF9F8104260139DEC308DFCBDCA993E3
S113EE90CB1A83007F230D1A83FF8024074FBDEF15
S113EEA0BD86093917BDEFBD4F3996D4D6C8810147
S113EEB02601398102260139C114260796C7800824
S113EEC097C739C113260796C7800C97C7394F399E
S113EED096D4810327138100272C810227418101C5
S113EEE0274C8104275786063996D6BDEFB596C7B9
S113EEF0BDEFBDBDEF9F8104260139DCA9BDEFBD87
S113EF0017BDEFBD4F3996D6BDEFB596C7BDEFBD62
S113EF10BDEF9F810426013996AABDEFBD4F3996F6
S113EF20C6BDEFB596C78B2097C7BDEF703996C5A0
S113EF30BDEFB596C78B2097C7BDEF7039BDEF9F66
S113EF40810426013996D6BDEFB596BB81022E0EFB
S113EF5096C78B10BDEFBD96AABDEFBD4F3996C7BE
S113EF608B30BDEFBDDCA9BDEFBD17BDEFBD4F3983
S113EF7096C7BDEFBDBDEF9F8104260139812C27C3
S113EF8003860839BDE2EEBDE2E78159270A8158BC
S113EF902706FEEAB9BDE53896AABDEFBD4F39BDD7
S113EFA0E234BDEC4B2705BDE30C26067D00BB27F0
S113EFB0013986043981002703BDEFBD39DEC3BDA5
S113EFC0E28ABDE51CDFC339414241201B014142B5
S113EFD058203A01414259203A02414443418903AD
S113EFE041444342C903414444418B0341444442A4
S113EFF0CB0341444444C308414E44418403414E3D
S113F0004442C40341534C20680441534C414801D9
S113F01041534C42580141534C4405014153522041
S113F02067044153524147014153524257014243FD
S113F0304320240542434C521D14424353202505CA
S113F040424551202705424745202C05424754207C
S113F0502E054248492022054248532024054249AE
S113F0605441850342495442C503424C45202F056F
S113F070424C4F202505424C53202305424C54203A
S113F0802D05424D49202B05424E45202605425070
S113F0904C202A054252412020054252434C1F1362
S113F0A042524E202105425253451E1342534554A9
S113F0B01C14425352208D054256432028054256C3
S113F0C053202905434241201101434C43200C01A4
S113F0D0434C49200E01434C52206F04434C52418F
S113F0E04F01434C52425F01434C56200A01434DA9
S113F0F050418103434D5042C103434F4D206304AB
S113F100434F4D414301434F4D425301435044202B
S113F1108315435058208C09435059208C11444185
S113F12041201901444543206A04444543414A01AE
S113F130444543425A014445532034014445582030
S113F1400901444559200902454F52418803454F5E
S113F1505242C803464449560301494449560201F0
S113F160494E43206C04494E43414C01494E4342AD
S113F1705C01494E53203101494E58200801494E43
S113F180592008024A4D50206E044A5352208D07DC
S113F1904C44414186034C444142C6034C44442000
S113F1A0CC084C4453208E084C445820CE094C447F
S113F1B05920CE114C534C2068044C534C41480107
S113F1C04C534C4258014C534C4405014C5352206F
S113F1D064044C53524144014C53524254014C5325
S113F1E0524404014D554C203D014E4547206004D6
S113F1F04E45474140014E45474250014E4F502035
S113F20001014F5241418A034F524142CA035053B4
S113F21048413601505348423701505348583C0145
S113F220505348593C0250554C41320150554C42C0
S113F230330150554C58380150554C593802524FEF
S113F2404C206904524F4C414901524F4C425901E0
S113F250524F52206604524F52414601524F52427D
S113F2605601525449203B01525453203901534210
S113F2704120100153424341820353424342C2039B
S113F280534543200D01534549200F015345562052
S113F2900B0153544141870753544142C707535408
S113F2A04420CD0753544F50CF01535453208F075C
S113F2B053545820CF1053545920CF125355424120
S113F2C0800353554242C003535542448308535765
S113F2D049203F0154414220160154415020060167
S113F2E054424120170154504120070154455354BE
S113F2F00001545354206D04545354414D0154534C
S113F30054425D0154535820300154535920300263
S113F310545853203501545953203502574149203C
S113F3203E01584744588F01584744598F0242526E
S113F330534512164252434C131642534554141764
S113F34042434C52151704DEC3A600C60081182799
S113F3500A811A270581CD26045C5C5C08DFC9D7C5
S113F360D6A60097C708DFC9815F230F818D270BBD
S113F370818F270781CF27037EF412D6D6C10225B9
S113F38004BDF5CC39D6C75FBDF4FB5D2604BDF5DD
S113F390CC3996C7818D2604C605200A818F27049F
S113F3A081CF2605C601BDF4FBD6C8C1012618D6F7
S113F3B0D6C100270E96C7C602BDF4FB5D2604BD68
S113F3C0F5CC39BDF51E39D6C8C10526107D00D649
S113F3D02704BDF5CC39BDF51EBDF55439D6C8C1D9
S113F3E0172704C11626117D00D62704BDF5CC3994
S113F3F0BDF51EBDF5AC2006BDF51EBDF538BDE559
S113F4001FBDF5ACD6C8C1132704C1162603BDF52C
S113F4105439817F222AD6D6C1022504BDF5CC39C0
S113F420846F5FBDF4FB5D2604BDF5CC39BDF51ECC
S113F43096C784F081602604BDF53839BDF5B93925
S113F4408187270481C72604BDF5CC3984CF5FBDED
S113F450F4FB5D2604BDF5CC3996C784CF818D2697
S113F46004C6072016818F2604C607200E81CF26E6
S113F47004C61020068183260CC608BDF4FB5D2655
S113F48004BDF5CC39D6C8C1032708C1072704C178
S113F49008263196C784CF8183260FD6D6C102258C
S113F4A009C615BDF4FBC608D7C8D6D6C1012704C2
S113F4B0C103260C96C784B081A02704BDF5CC39BE
S113F4C0BDF57639D6D6C1012704C102261396C7E5
S113F4D084CFD6C8C1092604C6112002C612BDF4C1
S113F4E0FBD6D6C102250C96C784B081A02704BDE3
S113F4F0F5CC39C608D7C8BDF57639CEEFC8A10416
S113F500260F5D2704E1052608E605D7C8DFCD5C94
S113F5103937C6063AE600C1043326E25F39DECD48
S113F520A600BDE509A601BDE509A602BDE509A63B
S113F53003BDE509BDE51F39BDF5AC862CBDE50964
S113F540D6D6C1012704C103260486592002865851
S113F550BDE50939DEC9E60008DFC95D2B033A20A1
S113F56004095C26FCDFCBBDE51F8624BDE509CE7E
S113F57000CBBDE51939BDF51E96C784B081802640
S113F580178623BDE509BDF5ACD6C8C108270139E6
S113F590DEC9BDE50DDFC93981902604BDF5AC395E
S113F5A081A02604BDF53839BDF5B9398624BDE5F9
S113F5B009DEC9BDE50DDFC9398624BDE509DEC90B
S113F5C0BDE519DFC939494C4C4F50043CCEF5C652
S113F5D0BDE53B3839CEF5DCBDE5383941534D2026
S113F5E05B3C616464723E5D20204C696E65206101
S113F5F0736D2F64697361736D0D20205B2F2C3D37
S113F6005D202053616D6520616464722C2020208C
S113F610202020205B5E2C2D5D20205072657620FA
S113F620616464722C202020202020205B2B2C433A
S113F630544C4A5D204E65787420616464720D20D8
S113F640205B43525D20204E657874206F70636F99
S113F65064652C2020202020202020202020202011
S113F6602020202020202020202020202020202096
S113F670205B43544C412C2E5D2020517569740D40
S113F6804246203C61646472313E203C6164647291
S113F690323E205B3C646174613E5D2020426C6FAD
S113F6A0636B2066696C6C206D656D6F72790D42B9
S113F6B052205B2D5D5B3C616464723E5D2053654A
S113F6C07420757020626B7074207461626C650DB7
S113F6D042554C4B2020457261736520454550527C
S113F6E04F4D2C20202020202020202020202020AE
S113F6F02020202042554C4B414C4C202045726127
S113F700736520454550524F4D20616E6420434F30
S113F7104E4649470D43414C4C205B3C6164647246
S113F7203E5D2043616C6C20737562726F75746901
S113F7306E650D474F205B3C616464723E5D2045FD
S113F74078656375746520636F64652061742061F6
S113F7506464722C202020202020202050524F430B
S113F7604545442020436F6E74696E756520657845
S113F77065637574696F6E0D45454D4F44205B3C60
S113F780616464723E205B3C616464723E5D5D2032
S113F7904D6F6469667920454550524F4D20726122
S113F7A06E67650D4C4F41442C20564552494659CD
S113F7B0205B545D203C686F73742064776E6C64C6
S113F7C020636F6D6D616E643E20204C6F61642018
S113F7D06F722076657269667920532D7265636F46
S113F7E07264730D4D44205B3C61646472313E204D
S113F7F05B3C61646472323E5D5D20204D656D6FDB
S113F80072792064756D700D4D4D205B3C616464AC
S113F810723E5D206F72205B3C616464723E5D2FBA
S113F82020204D656D6F7279204D6F646966790D86
S113F83020205B2F2C3D5D202053616D6520616489
S113F84064722C20205B5E2C2D2C43544C485D208C
S113F8505072657620616464722C20205B2B2C43EB
S113F860544C4A2C53504143455D204E65787420D6
S113F870616464720D20203C616464723E4F2043D5
S113F8806F6D70757465206F66667365742C2020C7
S113F8902020202020202020202020202020202064
S113F8A0205B43525D2020517569740D4D4F5645C0
S113F8B0203C73313E203C73323E205B3C643E5D11
S113F8C02020426C6F636B206D6F76650D4F46464A
S113F8D0534554205B2D5D3C6172673E20204F668A
S113F8E06673657420666F7220646F776E6C6F61E7
S113F8F0640D524D205B502C592C582C412C422C19
S113F900432C535D20205265676973746572206DC2
S113F9106F646966790D53544F504154203C6164BF
S113F92064723E2020547261636520756E74696C44
S113F93020616464720D54205B3C6E3E5D20205453
S113F94072616365206E20696E7374727563746985
S113F9506F6E730D544D20205472616E737061721A
S113F960656E74206D6F6465202843544C41203DBE
S113F97020657869742C2043544C42203D207365E3
S113F9806E642062726B290D5B43544C575D2020DA
S113F990576169742C202020202020202020205B07
S113F9A043544C582C44454C5D2041626F72742082
S113F9B020202020202020205B43525D20526570AF
S113F9C0656174206C61737420636D640D04BDE221
S113F9D0FC2713BDE234BDE2FC2707CEE6CBBDE530
S113F9E03839DEA9DF73DE7C09CCF9FAED0009DFD2
S113F9F07CBDFA6B7F00D47EFB5B3607977B0F32AE
S113FA00DD79DF7718DF759F7C9EC5BDFA9BBDE568
S113FA1031BDE1F339BDFB3EBDE31F7F00D47C0063
S113FA20D4BDFA6B7EFB5BBDE2FC2713BDE234BDA3
S113FA30E2FC2707CEE6CBBDE53839DEA9DF737FCC
S113FA4000D47C00D4BDFA6B7EFB5B309EC5BDFB4D
S113FA507ABDFA9BDE7309DF737D00D42606DE7C53
S113FA600808DF7CBDE531BDE1F3395FCE00AF1896
S113FA70CE00C93A183AEE00270AA60018A7008655
S113FA803FBDE28ACB02C1062FE2FE0108DFC78632
S113FA907EB70107CEFA4BFF0108395FCE00AF18DD
S113FAA0CE00C93A183AEE00270618A600BDE28A2D
S113FAB0CB02C1062FE6DEC7FF0108397F00D67CE2
S113FAC000D67F00BCBDE2FC2713BDE234BDE2FCDE
S113FAD02707CEE6CBBDE5383996AA97D6D6D637D2
S113FAE0DE73DFC3BDF34733D7D6BDFB3EBDE31F93
S113FAF0BDE558BDE1F37A00D62705BDE53120DD2B
S113FB0039BDE2FC2718BDE234BDE2FC2707CEE68E
S113FB10CBBDE538397D00BB2704DEA9DFBDDC732E
S113FB201A93BD250ADCBDC3000A1A93732208BDCB
S113FB30FB3EBDE31F20E7BDE531BDE1F339867E21
S113FB4097E6CEFB77FF0105967B84BF977BC6576C
S113FB50DE0E3ADF1E962084FE9720BF00C5BE004D
S113FB607CFE00733CFE00753CFE00773CFC007993
S113FB703637B6007B363B309EC5A600977BEC013A
S113FB80977AD779EC03DD77EC05DD75EC07DD7347
S113FB90C6083ADF7C96208A0397208608970B399B
S113FBA096B92607CEE6D8BDE538397F00B7BDE360
S113FBB03DBDFC10BDE3A04D271081012717810234
S113FBC02605BDFBDC2003BDFC28BDFC1C4D27E441
S113FBD0BDE3F020DF7C00B7BDE3453996BA81036D
S113FBE0270DCE002D1C00018D1D1D0001200DCE02
S113FBF0D0088660A7028D0F8670A702860DBDFC13
S113FC0028860ABDFC283918CE6F9B180926FC39B2
S113FC10D6B837D6BAD7B8BDE36E2016D6B837D61D
S113FC20BAD7B8BDE3A0200AD6B837D6BAD7B8BD7C
S113FC30E3F033D7B8397F00D47C00D420037F00AD
S113FC40D47F00D5BDE2FC26037EFBA0BDE1A781E5
S113FC50542616BDE2EEBDE2E7BDE2F4810D2609AD
S113FC607F00B796B897BA201B7F00B7BDE33DBDB0
S113FC70FC10BDE2E7BDE2EE36BDFC28BDE3F03288
S113FC80810D26EE96BA91B82703BDE31FBDFC1C77
S113FC904D27F1815326EDBDFC1C4D27FA813927F0
S113FCA04E813126DF7F00D6BDFD35D6AAC002BD08
S113FCB0FD35BDFD3537DCA9D3BF8F3309BDFD3517
S113FCC0085A271B7D00D526BB7D00D4260596AA9D
S113FCD0BDE28AA10027E6860297D5DFC720DE7D34
S113FCE000D526A096D64C279B860397D52095BD94
S113FCF0FD35D6AABDFD355A26FAC664BDE2DB5AE7
S113FD0026FABDE3A0CC7E0DDD7E7C00B7BDE345C5
S113FD10CEE6E596D581022608CE00C7BDE51920BA
S113FD201381012605CEE703200781032603CEE6CF
S113FD30EABDE53839373CBDFC1C4D27FABDE2016C
S113FD40BDFC1C4D27FABDE20196AA9BD697D63876
S113FD5033397F00D6BDE2FC2728812D26097C009B
S113FD60D6BDE2EEBDE2FCBDE2347D00BB271DBD85
S113FD70E2FC2618DCA97D00D62705CC000093A957
S113FD80DDBFBDE531CE00BFBDE51939CEE6CBBD43
S113FD90E53839CEE1BEBDE2FCBDE1A7810D271CEB
S113FDA0A100270EE60008C15326F5CEE6CBBDE53B
S113FDB038393CBDE2EEBDE2FC3826EFBDE1F3BDCF
S113FDC0E531BDE1D37F00A97F00AABDE257BDE3C1
S113FDD0172707CEE6CBBDE53839363C7D00BB2777
S113FDE014E607A60ECE00733A4D270596A9A70080
S113FDF00896AAA7003832E600C153270508810DEA
S113FE0026BD39BDE2FC260BCEC0FFDFCB18CEC029
S113FE10002036BDE2347D00BB272718DEA9BDE2F1
S113FE20FC260C18DFCBDCCBC300FFDDCB201ABDD6
S113FE30E2347D00BB270BDEA9DFCBBDE2FC26024A
S113FE402007CEE6CBBDE53839C6FFBDFE6118A656
S113FE5000A72F1F2E50FC189CCB2704180820EE57
S113FE6039CE10008602A708A7096F2D8622A72B7A
S113FE70860CA72DE72F1F2E50FC393986FFB710AB
S113FE80007F00B7BDE33DBDFC10867FBDFC288626
S113FE900DBDFC287C00B7CE0083DFC118CEFEBAAE
S113FEA018A60081042707A70008180820F27F007D
S113FEB0D4BDFC698E00727EC0B363617420657624
S10EFEC062746573742E6F75740D047A
S113FF7C7EE0C87EE1B27EE1F37EE2017EE2347E75
S113FF8CE2577EE27F7EE2E77EE2EE7EE2F47EE200
S107FF9CFC7EE31FE1
S113FFA07EE1A77EE30C7EE3177EE36E7EE3A07E14
S113FFB0E3F07EE4FB7EE4FF7EE5097EE50D7EE56D
S113FFC01C7EE5197EE5317EE5387EE53B7EE56401
S106FFD07EE34D7C
S113FFD600D700DA00DD00E000E300E600E900EC0B
S113FFE600EF00F200F500F800FB00FE0101010439
S10DFFF60107010A010D0110E000EB
S9030000FC
