:200000000C943E010C9450010C9450010C940A2D0C94D22C0C9450010C9450010C945001D7
:200020000C9450010C9450010C9450010C944D2D0C9450010C9450010C9450010C9450010F
:200040000C94392D0C9450010C94842F0C9402300C9450010C9450010C9450010C945001C0
:200060000C9450010C945001084AD73B3BCE016E84BCBFFDC12F3D6C74319ABD56833DDA41
:200080003D00C77F11BED9E4BB4C3E916BAAAABE000000803F05A84CCDB2D44EB93836A9D5
:2000A000020C50B9918688083CA6AAAA2ABE000000803F000D0A4772626C20312E316620D1
:2000C0005B27242720666F722068656C705D0D0A00244E005B4F50543A005B5645523A3102
:2000E0002E31662E32303137303830313A005B544C4F3A005B4739323A00333000323800A8
:200100005B4700204700204D0020530020460020540033382E005B47433A47005B484C50DE
:200120003A242420242320244720244920244E2024783D76616C20244E783D6C696E6520E1
:20014000244A3D6C696E652024534C50202443202458202448207E2021203F206374726C57
:200160002D785D0D0A00414C41524D3A007C413A007C4F763A007C57434F3A007C506E3A3A
:20018000007C46533A007C42663A007C57506F733A007C4D506F733A00536C656570004401
:2001A0006F6F723A00436865636B00416C61726D00486F6D65004A6F6700486F6C643A0080
:2001C00052756E0049646C65000D0A005B5052423A006572726F723A006F6B0D0A00536CC8
:2001E000656570696E6700526573746F72696E67207370696E646C6500526573746F7269D3
:200200006E672064656661756C74730050676D20456E6400436865636B204C696D697473C6
:2002200000436865636B20446F6F720044697361626C656400456E61626C65640043617550
:2002400074696F6E3A20556E6C6F636B656400272448277C2724582720746F20756E6C6F74
:20026000636B00526573657420746F20636F6E74696E7565005B4D53473A000011241FBE97
:20028000CFEFD8E0DEBFCDBF27E0A0E0B1E001C01D92A136B207E1F70E9427300C94483AB4
:2002A0000C9400008F929F92AF92BF92CF92DF92EF92FF920F931F93CF93DF937C016B01C5
:2002C000DC01EC91F0E0EF5EF84F8081EF018D3211F52296818101E0B12CF0E010E020E072
:2002E00030E0A901E0EDE80FEA3008F5FF5FF930D0F4B1101150A5E0B0E00E94213A9B014E
:20030000AC01220F331F441F551F2E0F311D411D511D8991E7CF8B3219F0219600E0DCCFA7
:2003200022968181FBCFB110F4CF1F5FF2CFEE3F29F4B11003C0BB24B394EBCFFF23F9F0BD
:20034000CA01B9010E9420374B015C0120E030E0A9010E946E3681112BC0002309F445C0D4
:20036000B7FAB094B7F8B094F60180829182A282B382C151D740C150F701C083F1E08F2F2C
:20038000DF91CF911F910F91FF90EF90DF90CF90BF90AF909F908F9008952AE037ED43E295
:2003A0005CE3C501B4010E94D0384B015C011E5F1F3F9CF31F3F59F42DEC3CEC4CEC5DE362
:2003C000C501B4010E94D0384B015C01C6CF112321F220E030E040E251E4C501B4010E94EF
:2003E000D0384B015C011150F2CFD6018D929D92AD92BC921397BDCF2FB7F8949091160693
:20040000982B909316062FBF08952FB7F89490911506982B909315062FBF08959FB7F89433
:20042000809314069FBF08959FB7F8942091130680958223809313069FBF08952FB7F89495
:2004400090911306982B909313062FBF0895AF92BF92CF92DF92EF92FF920F931F93CF93AC
:20046000DF93EC0106E616E05C018CE0A80EB11CC990D990E990F99020E030E0A901C701A9
:20048000B6010E9490381816DCF0F80121913191419151918F01C701B6010E946E3687FD47
:2004A0000FC0CA15DB0521F780E0DF91CF911F910F91FF90EF90DF90CF90BF90AF9008950F
:2004C00081E0F3CF8F929F92AF92BF92CF92DF92EF92FF920F931F93CF93DF93EB0122E417
:2004E000E22E26E0F22E8C016B018CE0C80ED11C6991799189919991F70181909190A190FB
:20050000B1907F010E942237A50194010E947836F80161937193819391938F01CC15DD0518
:2005200039F7DF91CF911F910F91FF90EF90DF90CF90BF90AF909F908F90089596B1892F17
:20054000877039F0892F8095817091FF826092FF84600895109217069091870697FD03C075
:2005600090E290931706882331F08091170690E2892780931706089593B18091870686FF79
:200580000BC0967159F091FB882780F992FD8260907129F0846008959095F3CF80E008959C
:2005A000EBE6F0E08081897E8083E8E6F0E080818E7F8083089584B1897E84B985B18661AD
:2005C00085B98091870683FF0BC080916B00866180936B008091680081608093680008959F
:2005E0000C94D0026F927F928F929F92AF92BF92CF92DF92EF92FF920F931F93CF93DF9387
:200600005C018B01D0E0C0E089E9682E96E7792E26E9822E3EE7932EF801C190D190E190B4
:20062000F1908F0120E030E0A901C701B6010E946E368823C9F0A7019601F501EC0FFD1F7A
:2006400060817181828193810E9478366B017C01E894F7F89301A401C701B6010E949038EA
:20066000181614F0360147012496CC30D105A1F6B301C401DF91CF911F910F91FF90EF90FF
:20068000DF90CF90BF90AF909F908F907F906F900895E7EFF5E0A8E1B6E04D915D916D9171
:2006A0007C911397408351836283738314964D915D916D917C911797448355836683778360
:2006C00018968D919D910D90BC91A02D80879187A287B3870895BF92CF92DF92EF92FF9215
:2006E0000F931F93CF93DF937C01FC0102A513A5D4A5C5A5818980FF33C06091390670E01A
:2007000090E080E00E9422372AE037ED43E25CE30E94D0389B01AC01B8018D2F9C2F0E94A7
:20072000D0388B01D82FC92F20E030E040E85FE3B8018D2F9C2F0E949038181624F000E0E0
:2007400010E0D0E8CFE3B8018D2F9C2FDF91CF911F910F91FF90EF90DF90CF90BF90089517
:2007600082FD17C06091380670E090E080E00E9422372AE037ED43E25CE30E94D0389B0101
:20078000AC01B8018D2F9C2F0E94D0388B01D82FC92FF701B6A0C7A0D0A4F1A498014D2F64
:2007A0005C2F6B2D7C2D8D2D9F2D0E946E3687FFBBCF0B2D1C2DDD2DCF2DB6CF8091D5029D
:2007C0009091F605981739F022E3829FC00111248A529D4F089590E080E00895F894F99919
:2007E000FECF92BD81BD81E08FBB20B5862F8227082E000C990B50E086239523892B49F05D
:2008000084E16F3F11F060BD84E08FBBF99A789408952617E1F360BD84E2F7CF8F929F9211
:20082000AF92BF92CF92DF92EF92FF920F931F93CF93DF935C018B017A016B01C40ED51E85
:20084000C0E0C11128C00C2E000CDD0BCD2FCC1FCC27CC1FF80161918F01C60F4C01FFEFC0
:200860008F1A9F0A0E94EE03C016D10691F46C2FC5018E0D9F1DDF91CF911F910F91FF90FA
:20088000EF90DF90CF90BF90AF909F908F900C94EE03C401D6CFC1E0DDCF6AE090E080E0CD
:2008A0000E94EE0345E550E062E476E081E090E00C940E04F999FECF92BD81BD81E08FBB95
:2008C00080B508959F92AF92BF92CF92DF92EF92FF920F931F93CF93DF93EC015B018A01A3
:2008E0007C01E40EF51ECB01912C6C012FEFC21AD20A0E945A0421E0911007C0292D990C46
:20090000330B232F221F2227221F982E920E8993C601EC16FD0649F7C501800F911F0E9447
:200920005A0421E030E0891511F030E020E0C901DF91CF911F910F91FF90EF90DF90CF90D3
:20094000BF90AF909F900895CF93DF93C091D102D091D2022097C9F08091A20281608093F7
:20096000A2026091B8027091B9028091BA029091BB029B01AC010E94D0386A8B7B8B8C8BBC
:200980009D8B1092D2021092D102DF91CF9108952F923F924F925F926F927F928F929F920F
:2009A000AF92BF92CF92DF92EF92FF920F931F93CF93DF9300D000D0CDB7DEB70091F60554
:2009C000011187C020E129833981315039831091D302131709F466C0A32EB12CE2E33E9F07
:2009E000C00111249C012A523D4F7901F9019688C788D08CF18DFB83F901628D738D848D29
:200A0000958D9B01AC010E947935F701268D378D40A151A10E94D038762E872E7C01262F04
:200A2000372FAC01692D7C2D8D2D9B810E946E3687FD04C0972CC82CDE2CFB8282E38A9D36
:200A4000F0018B9DF00D1124EA52FD4F892D9C2DAD2DBB81828B938BA48BB58BF98180E1B9
:200A6000F1118981FF24FA94F80E3090D5021F1132C0131102C00E94A404E2E31E9FC00187
:200A800011248A529D4F9A83898333243394310EF0E13F1201C0312C82E3282E031184C080
:200AA0001093D3020F900F900F900F90DF91CF911F910F91FF90EF90DF90CF90BF90AF90B8
:200AC0009F908F907F906F905F904F903F902F900895098379CF298182E3289F9001112451
:200AE0002A523D4F3C832B8322E3E22E8F2C912CFE9CC0011124FC01EA52FD4FFA83E983F6
:200B0000F11002C090E1F92EFA94F31002C00E94A404E89CC001E99C900D11249C012A5228
:200B20003D4F6901F90146885788608C718CA301920162897389848995890E946E368823F5
:200B400039F1F601628D738D848D958D9B01AC010E947935F601268D378D40A151A10E94D6
:200B6000D038EB81FC8122893389448955890E9479354B015C01AC019B01C301B2010E9417
:200B80009038F60118165CF4828A938AA48AB58A29813A813C832B831F11A8CF6ECF428A00
:200BA000538A648A758AF4CFC32CD12C329CC00111249C012A523D4F7901E981FA8142882A
:200BC000538864887588F90182889388A488B588A5019401C301B2010E946E3687FF26C065
:200BE000E981FA81628D738D848D958D9B01AC010E947935E981FA81268D378D40A151A126
:200C00000E94D038A30192010E9479352B013C01AC019B01C501B4010E949038181634F4B6
:200C2000F701428A538A648A758A132D2C9CF0012D9CF00D1124EA52FD4F26893789408D6E
:200C4000518D62897389848995890E946E36811101C0132D3394F0E13F1201C0312CFA8248
:200C6000E9821CCF90917306492F80917406282F90FF11C094E080FF10C080E241FD98606F
:200C800021FD806442FD906122FD80689093F2018093F301089590E0EECF80E0EFCF809105
:200CA000870682FF13C0289A8091F20180930302809172068250990B880F819580930202B2
:200CC00080916F00826080936F0008952898ECCF0E94DE03892B19F082E00C941E02089519
:200CE000E091040191E09E0F993609F490E020916E01291761F0F0E0EB5FFE4F80839093E6
:200D000004018091C10080628093C10004C02091130624FFECCF0895CF93DF93C1E1D7E010
:200D20008991811103C0DF91CF9108950E947006F7CF4F925F926F927F92CF92DF92EF92C2
:200D4000FF920F931F93CF93DF93CDB7DEB72D970FB6F894DEBF0FBECDBF6B017C01042F9A
:200D600020E030E0A9010E946E3687FF07C08DE20E947006F7FAF094F7F8F094102F123036
:200D800008F054C000FF0AC020E030E040E251E4C701B6010E94D0386B017C0120E030E0F5
:200DA00040E05FE3C701B6010E9479350E94EA3610E03AE0432E512C612C712CE12FF0E03E
:200DC0006115710581059105E9F581E090E08C0F9D1FE80FF91F80E3101708F445C0101348
:200DE00009C0E1E0F0E0EC0FFD1FE10FF11D80E380831F5FEE24E394F12CEC0EFD1EE10EF6
:200E0000F11C111134C02D960FB6F894DEBF0FBECDBFDF91CF911F910F91FF90EF90DF9008
:200E2000CF907F906F905F904F90089520E030E048EC52E4C701B6010E94D0386B017C014E
:200E400012509DCFEE24E394F12CEC0EFD1EEE0EFF1EA30192010E94F939605DF70160834D
:200E6000B901CA011F5FAACF1F5F8193B5CF101303C08EE20E947006F70182917F010E9445
:200E800070061150BECF2091870640E020FF07C02BE832E441E25DE30E94D03841E00C94B3
:200EA00099062091870643E020FF07C02BE832E441E25DE30E94D03844E00C9499060F9311
:200EC0001F93CF938C01C0E0F80161917191819191918F010E945107C23019F08CE20E941B
:200EE0007006CF5FC33081F7CF911F910F910895CF93DF93843658F06AE00E94D939C0E31F
:200F0000C90F6AE00E94D939D0E3D90F04C0C0E0D0E08A30B0F7805D0E947006DD2319F0ED
:200F20008D2F0E947006CC2329F08C2FDF91CF910C947006DF91CF910895CF93DF93EC0106
:200F4000FE0184912196811103C0DF91CF9108950E947006F5CF89EC91E00C949D07CF939C
:200F6000C82F82ED91E00E949D078C2F0E947807CF910C94AB07811104C089ED91E00C94E9
:200F80009D070C94AF07CF92DF92EF92FF92CF93DF93D82F6A017B01C22F84E20E94700642
:200FA0008D2F0E9478078DE30E9470064C2FC701B6010E949906DF91CF91FF90EF90DF9044
:200FC000CF900C94AB07CF93DF93D82FC62F84E20E9470068D2F0E9478078DE30E947006AD
:200FE0008C2F0E947807DF91CF910C94AB07EF92FF920F931F93CF93DF936091720670E000
:2010000080E00E94E3076091750670E081E00E94E3076091730670E082E00E94E3076091A2
:20102000740670E083E00E94E3076091870662FB662760F970E084E00E94E3076091870678
:2010400066FB662760F970E085E00E94E30780918706082E000C990B692F661F6627661F55
:2010600070E086E00E94E3076091760670E08AE00E94E3074091770650917806609179065E
:2010800070917A0623E08BE00E94C30740917B0650917C0660917D0670917E0623E08CE0D8
:2010A0000E94C30760918706617070E08DE00E94E3076091870665FB662760F970E084E1B3
:2010C0000E94E3076091870663FB662760F970E085E10E94E307609187066295617070E0EA
:2010E00086E10E94E3076091880670E087E10E94E3074091890650918A0660918B067091E6
:201100008C0623E088E10E94C30740918D0650918E0660918F067091900623E089E10E9460
:20112000C30760919106709192068AE10E94E30740919306509194066091950670919606BF
:2011400023E08BE10E94C30740917F0650918006609181067091820620E08EE10E94C3071B
:201160004091830650918406609185067091860620E08FE10E94C30760918706669561707B
:2011800070E080E20E94E30784E6F82E10E0C2E4D6E000E0E02EEF0C123011F1133069F16B
:2011A0001130C9F0488159816A817B8123E08E2D0E94C3070F5F2496033061F78AE0F80E5E
:2011C0001F5F8CE8F812E3CFDF91CF911F910F91FF90EF9008954C855D856E857F85E6CF37
:2011E00020E030E041E655E4688D798D8A8D9B8D0E947836AB01BC01D9CF4CA15DA16EA1EA
:201200007FA17058D3CF8DE50E9470060C94AB07CF93DF93CDB7DEB72C970FB6F894DEBFCA
:201220000FBECDBF8CEC91E00E949D0764E276E0CE0101960E946202CE0101960E945F07B0
:201240008AE30E947006809136060E9478070E9403092C960FB6F894DEBF0FBECDBFDF9174
:20126000CF91089590913206911105C0811104C0439810923C06089586FFFBCF439AF9CF0B
:201280008093B300811106C08091B0008F778093B00008958091B0008068F9CFCF93DF93C4
:2012A000239AC0EBD0E083E0888384E08093B100259A2091830630918406409185065091FF
:2012C000860660917F067091800680918106909182060E9478359B01AC0160E070E08EE7A7
:2012E00093E40E9478366093000170930101809302019093030188818F778883DF91CF9107
:20130000089568E176E08FEA96E00C946202E7EFF5E08CE1DF011D928A95E9F71092D5027F
:201320001092F60581E08093D4021092D30208954F925F926F927F92AF92BF92CF92DF926A
:20134000EF92FF920F931F93CF93DF93EC015C018CE0A80EB11C8E01C12CD12C7601F80131
:2013600041905190619071908F0120E030E0A901C301B2010E946E36882371F0A30192017F
:20138000C301B2010E94D0389B01AC01C701B6010E9479356B017C010A151B0501F7C7012C
:2013A000B6010E946F396B017C01AC019B0160E070E080E89FE30E9478362B013C016991CD
:2013C0007991899199918E0104501109A30192010E94D038F8016083718382839383CA1517
:2013E000DB0569F7C701B601DF91CF911F910F91FF90EF90DF90CF90BF90AF907F906F9096
:201400005F904F9008954F925F926F927F928F929F92AF92BF92CF92DF92EF92FF926B0149
:201420007C018090830690908406A0908506B090860640907F065090800660908106709033
:201440008206A3019201C501B4010E94903887FF1BC060913A0670E090E080E00E9422373B
:201460002AE037ED43E25CE30E94D038A70196010E94D0386B017C01AC019B01C301B2019E
:201480000E946E361816B4F040923E0650923F0660924006709241068FEFFF90EF90DF907B
:2014A000CF90BF90AF909F908F907F906F905F904F900895A7019601C501B4010E94903854
:2014C00087FD1CC020E030E0A901C701B6010E946E36811109C010923E0610923F06109263
:2014E000400610924106D9CF80923E0690923F06A0924006B092410681E0CFCFC0923E06C2
:20150000D0923F06E0924006F0924106A5019401C701B6010E947835209100013091010125
:2015200040910201509103010E94D0380E945D3720E030E040E85FE30E9479350E94F1367F
:20154000862FABCF90913206911111C0811110C010923E0610923F06109240061092410690
:201560008091B0008F778093B00010923C060895803189F42D989091870691FF05C08032B8
:2015800019F440E050E0BA01CB01BA010E94030A0E944009EACF2D9AEECF2F923F924F9262
:2015A0005F926F927F928F929F92AF92BF92CF92DF92EF92FF920F931F93CF93DF93CDB7B4
:2015C000DEB7C254D1090FB6F894DEBF0FBECDBF3B010091F605202E312C22E3029FA00185
:2015E0001124BA016A527D4F7CAB6BABFB0111922A95E9F7F3012085FB01218BF3014481FE
:20160000558166817781EBA9FCA946A757A760AB71AB21FFF0C02CE0E8E1F6E0DE01599681
:2016200001900D922A95E1F789AB9AAB22E436E021963FAF2EAF2197BE01635F7F4F7EAF98
:201640006DAFCE0149969CAF8BAFEBA9FCA9FAAFE9AF9E012B5D3F4F3EAB2DAB38AF2FAB8A
:2016600010E082E3829D2001839D500C1124B2016A527D4F2B01CB010C9623969FAF8EAF0B
:20168000239790E1490E511CE9A9FAA96191719181919191FAABE9AB2196EEADFFAD21970F
:2016A00081909190A190B1902196FFAFEEAF2197A50194010E94D0380E949D38EDADFEAD2B
:2016C0006193719381939193FEAFEDAFEBADFCADC190D190E190F190FCAFEBAF6C197D095C
:2016E0008E099F099B01AC0197FF07C022273327A901261B370B480B590BE9ADFAAD21938D
:20170000319341935193FAAFE9AF2396EEADFFAD2397C080D180E280F380C216D306E40651
:20172000F50610F469017A012396EEADFFAD2397C082D182E282F3820E942237A501940167
:201740000E947836EFA9F8AD6193719381939193F8AFEFAB20E030E0A9010E946E3687FF05
:201760000BC090E2112321F090E4113009F090E8F2018081892B80831F5F133009F084CF09
:2017800080E0CD28CE28CF2809F4CBC0CE0185960E9498094B015C0122E3229DC001239D64
:2017A000900D11249C012A523D4F7901F901868E978EA0A2B1A2BE016B5D7F4F8AE596E036
:2017C0000E94F202F701628F738F848F958FBE016B5D7F4F8EE496E00E94F202F70166A37D
:2017E00077A380A791A7118910FF09C062A773A784A795A710C02CE0E7EFF5E00FCFF3011B
:20180000208131814281538113FDA5C0F70122A733A744A755A78091D502081711F011FFCF
:20182000A0C082E3829DF001839DF00D1124EA52FD4F128A138A148A158A12A213A214A264
:2018400015A282E3829D8001839D100D11240A521D4FF801818981FD63C08BA99CA90E94D3
:201860006B036B017C0180900F0690901006A0901106B0901206AC019B01C501B4010E94B1
:201880006E3687FF36C1A5019401C501B4010E94D038F801668B778B808F918F82E3829D28
:2018A0008001839D100D11240A521D4FF80182A093A0A4A0B5A0A501940166897789808D4F
:2018C000918D0E94903818162CF4F801868A978AA08EB18EC0920F06D0921006E092110633
:2018E000F09212068CE0FE01B596A3E0B6E001900D928A95E1F78CE0FE013D96A7EFB5E0EF
:2019000001900D928A95E1F78091D4028093F6058F5F803109F480E08093D4020E94C80458
:2019200081E0CE5BDF4F0FB6F894DEBF0FBECDBFDF91CF911F910F91FF90EF90DF90CF90AC
:20194000BF90AF909F908F907F906F905F904F903F902F900895C501B4010E94D038F70187
:2019600045CF23E036E03AAB29AB8E010F5F1F4F6DA97EA9645F7F4F7CAF6BAFC12CD12C19
:2019800076010FAB19AFE9A9FAA981909190A190B190FAABE9ABEDA9FEA94190519061905C
:2019A0007190FEABEDABA3019201C501B4010E94D0389B01AC01C701B6010E9478356B0106
:2019C0007C01A5019401C301B2010E947835F80161937193819391938F012BAD3CAD6DA9F9
:2019E0007EA92617370779F62FEE3FEF4FE75FE3C701B6010E94903818164CF482E3829D38
:201A0000F001839DF00D1124EA52FD4F16CF2FEE3FEF4FE75FEBC701B6010E946E3687FF00
:201A200011C082E3829DF001839DF00D1124EA52FD4F89E996E7A6E9BEE782A393A3A4A3C1
:201A4000B5A3FFCE8FA999AD0E9498096FA979AD8AE596E00E94F2024B015C01A7019601FF
:201A600060E070E080E89FE30E94783520E030E040E05FE30E94D0380E946F396B017C014E
:201A800020917706309178064091790650917A06C501B4010E94D038A70196010E94D0381A
:201AA0004B015C01A701960160E070E080E89FE30E9478359B01AC01C501B4010E94783661
:201AC0006B017C0120E030E0A9010E946E3687FF03C0C12CD12C760182E3829DF001839DDE
:201AE000F00D1124EA52FD4FC2A2D3A2E4A2F5A2A8CEA7019601C701B601C9CE80916F00EB
:201B00008D7F80936F0080918100887F8160809381001092F40180917506909131068F3FE0
:201B200041F420911406211104C0903821F080E006C09430E1F390E0019758F481E0909142
:201B4000870692FF02C091E08927882349F0289A0895EFE9FFE03197F1F700C00000ECCF5F
:201B600028980895CF93DF930E947E0DE1EAF2E080E3DF011D928A95E9F7C5EFD1E083E2AF
:201B8000FE0111928A95E9F71092D2021092D102109218021092440281E0809319021092E4
:201BA000F4010E9432068091F3018F878BB1837E9091F201892B8BB98BB18F719091F301A1
:201BC000892B8BB9DF91CF9108958091130684FD1FC080E10E941E028091B0008F77809319
:201BE000B000439890913106809135068670292F2C72822B69F0943049F480911406811106
:201C000003C086E00E940E020C947E0D83E0FACF08952F923F924F925F926F927F928F925E
:201C20009F92AF92BF92CF92DF92EF92FF920F931F93CF93DF93CDB7DEB7EB970FB6F894E9
:201C4000DEBF0FBECDBF8091350680FD54C29091180280911902981709F44DC28091D102A9
:201C60009091D202892B09F080C01091350612FF5BC28091F60522E3829FC00111248A5274
:201C80009D4F9093D2028093D1024091D1025091D2025A874987452B09F42DC20091A202E0
:201CA00000FF45C21092A2021092B4021092B5021092B6021092B702A985BA855A968D91F7
:201CC0009D910D90BC91A02D89839A83AB83BC839C01AD0160E070E080E09FE30E9478367C
:201CE0006D837E838F839887E985FA85468C578C60A071A082889388A488B58811FF0AC3A4
:201D0000F2E0F093B302A50194010E94D0389B01AC01C301B2010E9478356B017C0120E0DC
:201D200030E0A9010E946E3687FFE3C229813A814B815C81CA01B9010E947935A30192015E
:201D40000E94D0389B01AC01C501B4010E9478350E946F396093C0027093C1028093C2022A
:201D60009093C30218601093350680914402A82FB0E0BA8BA98B27E02A9FF0012B9FF00D66
:201D80001124E65EFD4F8091A10284834091D1025091D2025A874987DA015E96BC91BDA33D
:201DA000FA01F78DFEA3DA019096BC91BFA3FA01F1A1F8A72091AF023091B0024091B102CE
:201DC0005091B2026DA17EA18B2F9F2F0E94783569AB7AAB8BAB9CAB20E030E0A9010E9458
:201DE0006E3687FF04C019AA1AAA1BAA1CAA2091BC022D8B3091BD023E8B4091BE024F8B08
:201E00005091BF02588F8091C4028D8F9091C5029E8FA091C602AF8FB091C702B8A3E09124
:201E2000C802E9A7F091C902FAA72091CA022BA73091CB023CA77090B8026090B902409165
:201E4000BA024BAF5091BB025AAF8091B3028D879091B4029DA7A091B502AEA7B091B602FA
:201E6000BFA7E091B702E8ABF091C002FEAB2091C1022FAB3091C20238AF4091C30249AF0B
:201E800029A53AA54BA55CA56D8D7E8D8F8D98A10E946E368111CDC352E05DAB9DA1998F42
:201EA000AEA1AA8FBFA1BB8FE8A5EC8F8EE3C82E83ECD82E8EE2E82E89E3F82E212C312C4A
:201EC0002101A701960129A33AA34BA35CA35D85513009F44FC4A985BA85552309F4DBC318
:201EE000533009F07DC45A962D913D914D915C915D97C701B6010E94D0384B015C012D8962
:201F00003E894F89588D672D762D8BAD9AAD0E9478359B01AC01C501B4010E94903887FD86
:201F200092C32D8D3E8D4F8D58A16DA17EA18FA198A50E9478359B01AC010E9479356B0104
:201F40007C01272D362D4BAD5AAD6D897E898F89988D0E9479359B01AC01C701B6010E945A
:201F600078366B017C017D886E88BF89BBAFE88DEAAF0D8D1E8DFF8DF98328A12D8331E038
:201F80003D87A7019601C201B1010E9479351B012C0129A13AA14BA15CA10E946E3687FFD6
:201FA0008AC4A201910169A17AA18BA19CA10E9478356B017C01980149815D816DA57EA562
:201FC0008FA598A90E946E3687FD36C33D853093B302872D962DABADBAAD8093B802909369
:201FE000B902A093BA02B093BB02E0914502F09146028189909135069870982B89F1A985DD
:20200000BA8551969C915197907309F474C49E96CD90DD90ED90FC90D1978823B1F02091E1
:20202000CC023091CD024091CE025091CF02672D762D8BAD9AAD0E94D0389B01AC01C7017E
:20204000B6010E94D0386B017C01C701B6010E94030A8093D00280913506877F8093350683
:2020600027E0E989FA892E9FC0012F9F900D1124AC01465E5D4F3A018091D002DA01169694
:202080008C932091AB023091AC024091AD025091AE02B80189819D810E94D03869877A87C7
:2020A0008B879C870E9457366B017C016091A7027091A8028091A9029091AA020E945736D6
:2020C0004B015C01A70196010E9478350E94F1366D877E878F87988B2D853E85F3013183B1
:2020E0002083232B09F012C48091350681FF0EC4816080933506EB960FB6F894DEBF0FBE17
:20210000CDBFDF91CF911F910F91FF90EF90DF90CF90BF90AF909F908F907F906F905F905E
:202120004F903F902F9008950E94DE03AACDE091A102EF5FE53009F4E0E0E093A102CE2E55
:20214000D12C52E1E59FF0011124E95BFD4FF0934602E0934502A985BA8550968C91509739
:20216000808BCD010C964D915D916D917D9133E0440F551F661F771F3A95D1F741935193C8
:20218000619371938A179B0771F7E985FA85648575858685978522E12C9DF0012D9DF00D21
:2021A0001124E95BFD4F4B015C0123E0880C991CAA1CBB1C2A95D1F784869586A686B786B3
:2021C0000E9420376093A7027093A8028093A9029093AA02A985BA855E962D913D914D9165
:2021E0005C9191970E9478369B01AC012093AB023093AC024093AD025093AE0260E070E0BB
:2022000080EA9FE30E9478366093AF027093B0028093B1029093B2021092A3021092A402FD
:202220001092A5021092A602902F9870812F8270892B09F44BC06091C0027091C10280915E
:20224000C2029091C3026093B8027093B9028093BA029093BB029B01AC010E94D038E98559
:20226000FA85628B738B848B958B077F0093A202B2E1BC9DC001BD9D900D1124FC01E95BEE
:20228000FD4F7F01118A8091870681FF0DCDA985BA8551968C91519785FF06CD9A962D9141
:2022A0003D914D915C919D9760E070E080E89FE30E9478366093CC027093CD028093CE0211
:2022C0009093CF0221E0F701218BEECCA985BA8552966D917D918D919C9155970E946F39C9
:2022E0006093B8027093B9028093BA029093BB02BFCFC092B402D092B502E092B602F09269
:20230000B7021092C0021092C1021092C2021092C30228CD1092B3024092C4025092C502E1
:202320006092C6027092C70212FF6AC01092C0021092C1021092C2021092C302C12CD12C5D
:20234000760189859A850E946B036D877E878F87988B9B01AC010E94D03869877A878B87A1
:202360009C87A50194010E946E3687FF93C029853A854B855C85C501B4010E9478352D814A
:202380003E814F8158850E94D0389B01AC01C301B2010E9478356093C4027093C502809382
:2023A000C6029093C70220E030E0A9010E946E3618160CF449C032E03093B30229813A8143
:2023C0004B815C81CA01B9010E947935A30192010E94D0389B01AC01C501B4010E9478358B
:2023E0000E946F396093C0027093C1028093C2029093C3028091A20288608093A202B2CC87
:20240000E091D502EF5FE03109F4E0E08091F605C12CD12C76018E1751F022E32E9FF00142
:202420001124EA52FD4FC288D388E488F588C701B6010E946F396093C0027093C1028093FA
:20244000C2029093C3027DCFA701960169857A858B859C850E9478352D813E814F815885BE
:202460000E94D0386093C8027093C9028093CA029093CB028D859E85AF85B8898093BC02DD
:202480009093BD02A093BE02B093BF0293E09093B30268CCA7019601C501B4010E947835DB
:2024A0002D813E814F8158850E94D038A30192010E94793520E030E040E05FE30E94D038B5
:2024C000698B7A8B8B8B9C8B20E030E0A9010E94903818160CF094C0A301920169897A89F8
:2024E0008B899C890E946E3687FF88C0A701960169857A858B859C850E9478352D813E8176
:202500004F8158850E94D0389B01AC012093C8023093C9024093CA025093CB0269897A89CC
:202520008B899C890E9490381816BCF52D853E854F8558892093BC023093BD024093BE0269
:202540005093BF02A501940169857A858B859C850E946E36811104C031E03093B30202CC8B
:20256000A501940169857A858B859C850E9478352D813E814F8158850E94D0389B01AC01A6
:20258000C301B2010E9478356093C4027093C5028093C6029093C702E5CB89899A89AB8912
:2025A000BC898093C4029093C502A093C602B093C7028093C8029093C902A093CA02B093FF
:2025C000CB0229813A814B815C81CA01B9010E94793529893A894B895C890E94D038A701CB
:2025E00096010E9479350E946F396093BC027093BD028093BE029093BF02B4CB92E047CF79
:202600008091C0029091C102A091C202B091C3021092C4021092C5021092C6021092C70262
:202620008093BC029093BD02A093BE02B093BF0299CB81E08DAB32CC098F1A8F39813B8F30
:202640004D814C8F44CC20E030E040E05FE3C501B4010E94D0389B01AC01672D762D8BAD72
:202660009AAD0E947835A70196010E94D0389B01AC01698D7A8D8B8D9C8D0E9478358B0179
:2026800089839D83A5019401672D762D8BAD9AAD0E9478356AC05A962D913D914D915C915D
:2026A0005D97C701B6010E94D0384B015C0120E030E040E05FE30E94D038272D362D4BAD89
:2026C0005AAD0E947935A70196010E94D0389B01AC01698D7A8D8B8D9C8D0E9478358B0158
:2026E00089839D839B01AC016D8D7E8D8F8D98A10E94903818168CF52D8D3E8D4F8D58A198
:202700006DA17EA18FA198A50E9478359B01AC010E9479356B017C01272D362D4BAD5AAD98
:202720006D897E898F89988D0E9479359B01AC01C701B6010E9478366B017C017D886E8813
:20274000BF89BBAFE88DEAAFFDA9FD870D8D1E8D2F8D298338A13D8314CCA5019401672D9A
:20276000762D8BAD9AAD0E947935762E672E8BAF9AAF07CC2D893E894F89588DC701B6019F
:202780000E94D0389B01AC01698D7A8D8B8D9C8D0E9478358B0189839D8329A53AA54BA564
:2027A0005CA50E946E3687FFECCB29A53AA54BA55CA5698D7A8D8B8D9C8D0E9478352D89B4
:2027C0003E894F89588D0E9478366B017C0109A51AA54BA549835CA55D8382E08D87D1CB20
:2027E0005A962D913D914D915C915D97C701B6010E94D0384B015C01272D362D4BAD5AAD16
:202800000E946E3687FF28C020E030E040E05FE3C501B4010E94D0389B01AC01672D762DED
:202820008BAD9AAD0E947835A70196010E94D0389B01AC01698D7A8D8B8D9C8D0E9478350B
:202840008B0189839D832DA53EA54FA558A90E94903818160CF416CF2DA53EA54FA558A9EF
:20286000698D7A8D8B8D9C8D0E9478359B01AC010E9479356B017C01272D362D4BAD5AAD93
:202880006EA97FA988AD99AD0E9479359B01AC01C701B6010E9478366B017C017EA86FA8F0
:2028A000B8ADBBAFE9ADEAAF0DA51EA5FFA5F98328A92D8366CB29A93AA94BA95CA9B8016C
:2028C00089819D810E94903818168CF42EE333EC4EE259E369A17AA18BA19CA10E9479353E
:2028E00069A37AA38BA39CA3A201910160CB4D854093B3026ECB10923E0610923F061092E0
:202900004006109241061092D002A5CB2091A3023091A4024091A5025091A602C201B10171
:202920000E9479352B013C0129853A854B855C85C501B4010E9478359B01AC01C301B20136
:202940000E9478364B015C0120EC31EE44E65EE40E94D0380E9457360E94F136603D57E071
:2029600075078105910508F066C027E0A989BA892A9FF0012B9FF00D1124E65EFD4F158248
:2029800027E0A989BA892A9FF0012B9FF00D1124E65EFD4F73836283809119028093440215
:2029A0008F5F863009F4A1C080931902E091D102F091D202C801A981BD81868F978FA0A39F
:2029C000B1A3C092A702D092A802E092A902F092AA0229853A854B855C85C701B6010E9412
:2029E0007835A50194010E94D0386093A3027093A4028093A5029093A6022091B402309157
:202A0000B5024091B6025091B702B80189819D810E946E3681111BC9F090350620E030E074
:202A2000A901B80189819D810E94903818160CF05FC08F2D5DCB603A3FE073078105910525
:202A4000A0F5A7E049895A89A49FF001A59FF00D1124E65EFD4FB1E0B583A7E049895A8966
:202A6000A49FF001A59FF00D1124E65EFD4F2581022E04C096958795779567950A94D2F7CC
:202A80004D855E8502C0440F551F2A95E2F7518340836115710551E08507910508F470CF4F
:202AA0004FEF5FEF5383428377CF6034EFE17E078105910568F447E029893A89429FF001DA
:202AC000439FF00D1124E65EFD4F52E05583C5CF27E0A989BA892A9FF0012B9FF00D112482
:202AE000E65EFD4F33E03583B8CF109219025ECFF2FC9FCF1092D2021092D1029091D502CB
:202B00008091F605891709F4A2C881E0890F803109F480E02091D302921302C08093D302C6
:202B20008093D50294C83F924F925F926F927F928F929F92AF92BF92CF92DF92EF92FF92D2
:202B40000F931F93CF93DF93CDB7DEB7A4970FB6F894DEBF0FBECDBF109114061123C1F012
:202B600081E08093310686E691E00E949D07812F0E9478070E94AB0785EF91E0019751F59F
:202B80001150123070F18FB7F894109214068FBF10911306112309F4BAC214FF34C081E086
:202BA00080933206A4960FB6F894DEBF0FBECDBFDF91CF911F910F91FF90EF90DF90CF904D
:202BC000BF90AF909F908F907F906F905F904F903F900895EFE9FFE03197F1F700C00000AA
:202BE000CDCF85E792E00E949D0783E692E00E949D070E94030980E10E9414028091130603
:202C000084FFFCCFC0CF10FFCEC08CE0E8E1F6E0DE01599601900D928A95E1F7BE01675EB6
:202C20007F4FCE010D960E9462028CE30E94700680913106883009F42FC108F00AC1813066
:202C400009F433C1882309F422C1823009F430C1843009F427C180917606F82FF1709F2EDD
:202C600080FF3BC180913D06882309F436C182E991E00E949D07CE010D960E945F07809139
:202C8000760681FF1DC086E891E00E949D079091F6058091D502981708F46EC1815F891BD4
:202CA0000E9478078CE20E9470068091F1019091F001981708F462C18058891B0E947807ED
:202CC00081E891E00E949D07809131068C7709F457C16091B8027091B9028091BA0290911F
:202CE000BB020E9443078CE20E94700660913E0670913F06809140069091410640E00E94A9
:202D000099060E94BC02E82E0E949E02F82E06B100728091170608278E2D8F29802B59F148
:202D20008CE791E00E949D07002319F080E50E947006EE2079F0E0FE03C088E50E94700623
:202D4000E1FE03C089E50E947006E2FE03C08AE50E947006FF2079F0F0FE03C082E50E94DF
:202D60007006F1FE03C088E40E947006F2FE03C083E50E94700680913D06882309F404C1B3
:202D8000815080933D0600913C06002309F415C1015000933C068EE30E9470060E94AB0740
:202DA00081E00E941402812F887E09F460C180913106982F937009F049C18872A1F0809175
:202DC0003306807C81F40E94A40482E08093350680913106803239F417FD05C08091330605
:202DE00080688093330680913106811103C091E09093330616FF07C085FD05C090913306B8
:202E000090649093330613FF05C0807E19F480E18093310615FF1AC185E792E00E949D07C2
:202E200081E292E00E949D070E9403098091330687FD07C190913106903409F0FFC083FFDD
:202E400004C0837E82608093330680E480933106F8C0803221F198F4803109F0FCCE809144
:202E6000330687FD1CC08AEB91E00E949D078091330680FF2EC080E30E947006ECCE8034ED
:202E8000D1F0803809F0E7CE89E991E002C084EC91E00E949D07DFCE80EC91E0FACF86EB7B
:202EA00091E0F7CF81EB91E0F4CF8BEA91E0F1CF85EA91E0EECF8FE991E00E949D078091B8
:202EC000330683FF02C083E3D7CF82FF04C085FFD2CF81E3D1CF82E3CFCF4090D30650906F
:202EE000D4066090D5067090D6065BEBA52E56E0B52E9E012F5F3F4F6901CE010D967C010B
:202F000000E0F50161917191819191915F0120853185428553850E947935F601619371931A
:202F2000819391936F01023041F4A30192010E94793569877A878B879C87911012C0F6016B
:202F400034972081318142815381F70160817181828193810E947835F701608371838283B7
:202F600093830F5FF4E0EF0EF11C033051F691107ECE8BE891E07DCE815091CE81509DCEED
:202F800060E070E0CB01ADCE809131068C7799F08DE180933D0680913C06811103C081E0B9
:202FA00080933C0686E791E00E949D07CE0101960E945F07E8CE89E0ECCF809131068C7705
:202FC000C1F183E180933C0681E791E00E949D07809138060E9478078CE20E947006809160
:202FE00039060E9478078CE20E94700680913A060E9478078091B000F12C87FF04C02D998B
:203000001AC0FF24F394439BBEC101E08DE691E00E949D07FF2031F021E083E5F21283E4B0
:203020000E947006002309F4B6CE86E40E947006B2CE89E0C7CF42E0F42EE5CF903809F01A
:2030400004CF8091330680628093330617FF0CC080913106813029F48091330685608093EB
:20306000330680E88093310688EE0E94140211FF28C0812F887611F580913106803441F45A
:203080008091330685FD04C084FFE1C01092310680913106882309F4E0C084FF0FC09091A0
:2030A000330690FF0BC0803109F0D7C080913B06882309F4D2C0886080933B0682E00E9470
:2030C000140212FF24C09091330680913106807D09F4DCC0809134068111D8C097FDD8C00C
:2030E0000E94A4048091D5028093D3020E94C8048091350681FF05C0909133069160909349
:203100003306897F8093350684E00E94140290911506992309F44EC08FB7F8941092150672
:203120008FBF4091380684E690FF842F91FD865F92FD8A5093FD8F5F94FD8150893C08F00D
:2031400088EC8A3008F48AE03091390624E695FF232F96FD22E397FD29E1481302C023175E
:2031600049F1809338062093390610923C061091D5024090F60589E9382E96E7C92E26E950
:20318000D22E0EE732E3532E14119DC0832D9C2DAD2DB02F80930F0690931006A093110645
:2031A000B09312060E94A4048091D5028093D3020E94C80490911606992309F440C08FB7F0
:2031C000F894109216068FBF20913A0684E690FF822F91FD865F92FD8A5093FD8F5F94FDD1
:2031E0008150893C08F088EC8A3008F48AE0281749F02091350628602093350680933A0680
:2032000010923C068091310695FF09C0803139F420913B062111B1C022E020933B06907CB0
:2032200071F0882311F0887151F010919F0616FFA8C01F7B812F0E94320910939F06809104
:2032400031068C7F09F4AECC0E94090EABCC82FF1FCF8860809333061BCF109235060E9479
:20326000DE03892B71F08091330686FD0AC01092330688E0809331060E94090E0E944F0684
:203280001DCF109233061092310618CF97FF0AC0109235060E9487090E94B20D0E948109AB
:2032A0000E9449038091330685FF08C08F7781608093330680E48093310626CF10923306D9
:2032C0001092310621CFA12EB12C159DC00111248A529D4F0E946B033B014C01232D3C2DB7
:2032E0004D2D502F0E9490385A9C70015B9CF00C11241816CCF5C7018A529D4F7C01232D90
:203300003C2D4D2D502F632D7C2D8D2D902F0E94D038F701668B778B808F918F5A9CC0011E
:203320005B9C900D11249C012A523D4F7901F901A2A0B3A0C4A0D5A0A60195016689778911
:20334000808D918D0E94903818162CF4F701A68AB78AC08ED18E1F5F103109F410E0362C66
:20336000C72CD82C092D10CF97012A523D4F79019301A401B301C401CACF20FF50CF24601A
:203380004CCF106457CFFF2009F405CD3FCECF92DF92EF92FF921F93CF93DF930E949315C9
:2033A00080913306882309F466C00E94DE03009709F03FC0C091A00680919F06C82BC090F3
:2033C000A206D090A306E090A406F090A5068091870681FF03C080E20E94FC01DC2FD073C7
:2033E00011E0C07480913306882309F444C090913206911140C080FF19C090913106292FAF
:20340000207C09F485C082FD1BC010923B0640E050E0BA0180E00E94A20A80E00E9432099B
:20342000809133068D7F8460809333060E949315D9CFFC01C189C6A4D7A4E0A8F1A8C7CF31
:20344000903821F585E792E00E949D078EED91E00E949D070E94030940E050E0BA0180E01F
:203460000E94A20A80E00E9432090E947E0D80913206882341F0DF91CF911F91FF90EF90E1
:20348000DF90CF9008950E949315F1CF903419F48F7D809333068091330683FFC7CF90910B
:2034A000A006992359F081FD09C08091870681FF22C08091350688608093350680919F06E2
:2034C000882371F08091330681FD0AC08C2F0E94320941E060E070E080E89FE30E94B51CA8
:2034E0008091330681FDA2CF80618093330682E00E941E029BCFB701A6018D2F0E94A20A6F
:2035000041E060E070E080E890E40E94B51CD6CF80913B068823C9F181FF0DC08091A0064B
:20352000882351F140E050E0BA0180E00E94A20A10933B067BCF8C7009F478CF8091A006C0
:20354000882399F085E792E00E949D0787EE91E00E949D070E9403098091870681FF0FC04C
:203560008091350688608093350680913B0683FF03C082E00E941E0210923B0657CFB7014D
:20358000A6018D2F0E94A20AF0CF8091350683FF4DCFB701A6018D2F0E94A20A809135061C
:2035A000877F8093350642CF2F923F924F925F926F927F928F929F92AF92BF92CF92DF927A
:2035C000EF92FF920F931F93CF93DF93CDB7DEB76E970FB6F894DEBF0FBECDBF782E809195
:2035E0003206811110C19E01235F3F4F3A8F298F89E0F90111928A95E9F786E08D8B22E477
:2036000036E03C8F2B8FCE0146966C01790110E000E0812C912C5401E72DF0E0FE8FED8F01
:20362000802F94E0002321F090E1013009F498E0F60191936F012D8D3E8D02C035952795C4
:203640008A95E2F720FF19C020E030E040EC5FEBF70164A175A186A197A10E94D038362E74
:20366000472E582E692EA50194010E946E3687FD04C0832C942CA52CB62C0F5F1F4FF4E01D
:20368000EF0EF11C0330110559F620908D0630908E0640908F065090900634E0632E01E090
:2036A00068E176E0CE0101960E946202A0918806B0E060E010E090E080E050E040E07501EA
:2036C0006401F7FAF094F7F8F0942D8D3E8D042E02C0359527950A94E2F720FF2CC06F5F4E
:2036E000FC01E85EF94F10821182128213829D01042E02C0359527950A94E2F7E1E0F0E0D1
:20370000EC0FFD1FE80FF91F20FF07C0002339F0C082D182E282F38206C00023C9F380823C
:203720009182A282B382E6E1F0E0EC0FFD1FE40FF51F2081122B4F5F5F4F049643305105CB
:2037400021F670E090E080E00E9420370E946F3910933706A20191010E94D0386D877E8737
:203760008F87988BBE01635F7F4FCE0101960E94CD0A24E0209335060E94090E0E944F0640
:203780000023E9F00E94BC02FE01769630E020E090E06191462F412359F0AC01022E02C08F
:2037A000559547950A94E2F740FF02C0609516232F5F3F4F2330310561F7109337060E941E
:2037C000090E80911306847309F4AFC01091130614FF03C086E00E940E0215FF03C087E05F
:2037E0000E940E020111BDC00E94BC02872119F088E00E940E02809114068823E9F00E940C
:20380000E50D0E94C7196E960FB6F894DEBF0FBECDBFDF91CF911F910F91FF90EF90DF904C
:20382000CF90BF90AF909F908F907F906F905F904F903F902F90089584E00E9414020E9488
:20384000B20D8091910690919206019708F072C021E00227C0909306D0909406E09095066E
:20386000F0909606002309F46CC020E030E040EA50E4C701B6010E94D0384B015C012090F0
:20388000890630908A0640908B0650908C066A94611006CF20908806312C2601370177FAC7
:2038A000709477F8709410E000E08D8D9E8D002E02C0959587950A94E2F780FF28C0EB8DF0
:2038C000FC8D80809180A280B380C101002E02C0959587950A94E2F780FF3EC024A135A172
:2038E00046A157A1C701B6010E947935A50194010E94D0380E949D38F801EE0FFF1FEE0FAD
:20390000FF1FE85EF94F60837183828393830F5F1F4F2B8D3C8D2C5F3F4F3C8F2B8F0330DB
:20392000110519F6109235066ECF812F8C7109F027CF85CFEFE9FFE03197F1F700C0000031
:2039400084CF20908D0630908E0640908F0650909006460157019BCFA5019401C301B201E7
:20396000C7CF12FF48CF89E044CF1F93CF93DF93142F20E030E040EA51E40E94D0380E9489
:2039800057360E94F136EB012097C9F080913206811115C011110DC00E94C7192FEF80E7CF
:2039A00092E0215080409040E1F700C000002197EBCF0E9493158091330681FFEFCFDF9148
:2039C000CF911F9108950E9468060E94C71980913206811108C00E94DE03892BB1F7809115
:2039E0003106883091F30895CF93DF9391E5899FE0011124DD5F40E550E0BE0181E197E006
:203A00000E946204892B79F4109211070E94E31C40E550E061E177E0CE010E940E0480E051
:203A2000DF91CF91089581E0FBCF0E94E31C10923D0608950F931F93CF93C82F8B010E94F0
:203A4000E31C2DE0C29FC00111244CE050E0B8019E5FCF911F910F910C940E041F93CF937B
:203A6000DF93182FEB018DE0189FB00111247E5F4CE050E0CE010E946204892B71F48CE002
:203A8000FE0111928A95E9F7BE01812F0E941A1D80E0DF91CF911F91089581E0FACFEF9215
:203AA000FF920F931F93CF93DF93CDB7DEB72C970FB6F894DEBF0FBECDBF182F80FFDAC0CA
:203AC0008AE08093720689E1809375061092730682E08093740681E0809376068AE097ED11
:203AE000A3E2BCE38093770690937806A0937906B0937A068FE692E1A3E0BBE380937B065F
:203B000090937C06A0937D06B0937E0680E090E0AAE7B4E480937F0690938006A09381068F
:203B2000B0938206109283061092840610928506109286061092880640E050E068EC71E4DF
:203B40004093890650938A0660938B0670938C0640E050E06AEF73E440938D0650938E069A
:203B600060938F06709390062AEF30E0309392062093910640E050E060E87FE340939306F0
:203B80005093940660939506709396061092870640E050E068E474E4409342065093430611
:203BA00060934406709345064093460650934706609348067093490640934A0650934B0641
:203BC00060934C0670934D0680934E0690934F06A0935006B0935106809352069093530661
:203BE000A0935406B093550680E090E0A6E1B4E48093560690935706A0935806B093590689
:203C000080E090EFA2EDB7E480935A0690935B06A0935C06B0935D0680935E0690935F066A
:203C2000A0936006B09361068093620690936306A0936406B093650680E090E0A8E4B3ECF4
:203C40008093660690936706A0936806B093690680936A0690936B06A0936C06B0936D0690
:203C600080936E0690936F06A0937006B09371060E944D0411FF10C0CE0101967C018CE0A0
:203C8000F70111928A95E9F700E0B701802F0E941A1D0F5F0830C9F712FF14C060E080E07F
:203CA00093E00E94EE0360E081E093E00E94EE0360E081E593E00E94EE0360E082E593E091
:203CC0000E94EE0313FF0AC060E08EEA93E00E94EE0360E08FEA93E00E94EE032C960FB671
:203CE000F894DEBF0FBECDBFDF91CF911F910F91FF90EF900895CF92DF92EF92FF92CF9331
:203D0000C82F6A017B0180913106823061F00E94E31CB701A6018C2FCF91FF90EF90DF90E2
:203D2000CF900C94A20ACF91FF90EF90DF90CF900895FF920F931F93CF93DF938C01EB01CD
:203D40008091870685FF17C0F090310680E2F816B1F0C8010E942702882369F081E0809396
:203D6000340688E0F81619F10E94E50D82E00E940E020E94C71980913106823091F00E9442
:203D8000C7198091320681110CC09091D5028091D4029817D1F0BE01C8010E94CD0A8823A1
:203DA000B9F0DF91CF911F910F91FF90089588E00E941E020E94C719809132068111DBCFDD
:203DC000809131068111F6CFCFCF0E946806D7CF8091870681FFE5CF888584FFE2CF4C8110
:203DE0005D816E817F8180E1DF91CF911F910F91FF900C947B1E2F923F924F925F926F9248
:203E00007F928F929F92AF92BF92CF92DF92EF92FF920F931F93CF93DF93CDB7DEB7CE5466
:203E2000D1090FB6F894DEBF0FBECDBFE7EDF6E08AE3DF011D928A95E9F78BE0E7E9F6E0AB
:203E4000A8EDB6E001900D928A95E1F7809111078432A1F01A8E1BA2312C212C1CAA1BAA06
:203E600010E01B8E1F8EEE24E394F12CAAE0AA2EB12CB1E68B2EB3E09B2E38C181E08093FE
:203E8000D8061092D90683E08A8FB1E0BBA3E4CF9FEB9D0D9A3110F00C947F2C8F5F8A8F54
:203EA000BE016A5E7F4FCE014A960E945201882311F40C94822C4E885F88688C798CC30191
:203EC000B2010E94B3390E94F136062F70E090E080E00E9422379B01AC01C301B2010E9426
:203EE000783520E030E048EC52E40E94D0380E943D390E94F136CB01E7E4DE1679F0FDE43B
:203F0000DF1609F44FC1EAEBED0DE531B8F40E2E000CFF0BE65BF54C0C941B3A083209F40E
:203F2000DDC030F5043160F4013108F098C0043009F474C0B0F00A3009F468C084E196C095
:203F40000C3109F463C040F40631C0F725E1201B2093DA0626E087C00E3109F457C0063236
:203F600069F74F8D41110C94852CA2E0AF8F28C00D3309F4AEC0E0F4053309F44FC088F47B
:203F80000B3211F00133D1F6BF8DB1110C94852C013309F095C01092DD06E3E0EF8F28E039
:203FA0004FC00C3358F606530093DE0629E05BC00C3508F50A3508F073C0003509F0BECF0E
:203FC0000093D80621E0063209F04DC08431910551F08E31910539F08832910521F0823311
:203FE000910509F0ABCFB5010E94E53966576093D80621E025C00C3549F00F3508F09ECFAB
:204000002EE5201B2093D90625E02DC0009731F42F8D21110C94852C31E03F8F0093D70684
:20402000202F2D7F2C3119F020E00C35E1F4009719F00A9709F082CF600F6093D70620E03F
:20404000C70102C0880F991F2A95E2F72BA93CA928233923232B09F443C085E107C00151C2
:204060000093DC0622E0892B59F387E1C25BDF4F0FB6F894DEBF0FBECDBFDF91CF911F914F
:204080000F91FF90EF90DF90CF90BF90AF909F908F907F906F905F904F903F902F900895C1
:2040A000892B29F40A550093DB0623E0C9CF6A30710509F043CF0A3509F440CF24E0C0CFC8
:2040C0000A9709F03BCFF1E0F093DD0623E02F8F66CF892B09F032CF2AE0B2CF27E0C3CF3D
:2040E000ABA9BCA9A82BB92BBCABABAB8A8DE82FF0E0EF5EF84FD080D110CACEBB8DBB2312
:2041000029F0EF8DE11102C0F2E0FF8F25FE0FC08091F4069091F506A091F606B091F70672
:2041200081389649A849B10514F00C94912C3BA1332309F433C120FE43C18091DA068130F8
:20414000B1F423E333E34BEC51E46091E3067091E4068091E5069091E6060E94D0386093C7
:20416000E3067093E4068093E5069093E60630FC10C08091A2069091A306A091A406B091C1
:20418000A5068093000790930107A0930207B09303078091D706843009F02DC126FC29C111
:2041A0008CE164CF892B09F060CF063050F4033098F00430D9F080E10530C9F41092E10675
:2041C00018C0083008F4BACE0A3048F10E3109F0B5CE0093DF0604C0002321F00130C9F7BC
:2041E0008BE008C0B3E0B093DF06FACF80E28093E1068CE0F70102C0EE0FFF1F8A95E2F773
:20420000CF012BA93CA92E233923232B09F025CF2BA93CA92E2B392B3CAB2BAB67CF09308B
:2042200029F080E48093E0068DE0E4CF1092E006FBCF4092E3065092E4066092E506709230
:20424000E60680E06701082E02C0CC0CDD1C0A94E2F7960122213321232B11F00C948B2C96
:20426000D40102C0B595A7958A95E2F7A0FF0BC020E030E0A901C301B2010E946E3687FFC2
:2042800002C00C948E2C2C283D2830CF4092E7065092E8066092E9067092EA06116081E016
:2042A000D1CF4092EB065092EC066092ED067092EE06126082E0C6CF4092EF065092F006E4
:2042C0006092F1067092F206146083E0BBCF0093F30684E0B7CFC301B2010E94EA366093F8
:2042E000F4067093F5068093F6069093F70685E0A9CF4092F8065092F9066092FA06709215
:20430000FB0686E09FCF4092FC065092FD066092FE067092FF0687E095CF4092000750928C
:204320000107609202077092030788E08BCF20E030E04FE753E4C301B2010E949038181620
:2043400014F40C94882C0093040789E07BCF409205075092060760920707709208073B8D0A
:2043600031603B8F8AE06ECF4092090750920A0760920B0770920C074B8D42604B8F8BE08E
:2043800061CF40920D0750920E0760920F07709210078B8D84608B8F8CE054CF8091D9065A
:2043A000813081F44F8D423009F0E1CE8091D806803509F4DCCE882309F4D9CE20FCD7CE86
:2043C00086E154CE809198068111D1CE20FCB5CE8091A6069091A706A091A806B091A9067B
:2043E0008093E3069093E406A093E506B093E606BECEE89426F88091DC06882309F44BC09B
:20440000813009F450C024961FAE249782E089AF91E09FAB8091DA06813009F44CC02F8DE0
:20442000233049F48091DD06813029F44B8D85E2443009F01BCE8CE0EBEBF6E0DE011196F7
:2044400001900D928A95E1F78BA99CA991FD62C00091D7060A3009F471C00C3509F417C120
:204460008F8D833009F082C10E3109F410C2053309F434C20C3109F06CC167EE76E086E084
:204480000E942E1D882309F457C08B8D811103C21FA61F8EE6C0A2E02496AFAF2497B1E003
:2044A000B9AF1FAAB7CFE1E02496EFAF249719AEF2E0FFABAFCFE7EDCE2EE6E0DE2EF12CF1
:2044C000E12C3B8DA32EB12CC5010E2C02C0959587950A94E2F780FF12C023E333E34BEC36
:2044E00051E4D6019E966D917D918D919C91D1970E94D038F60166A777A780AB91ABFFEF9C
:20450000EF1AFF0A24E0C20ED11C33E0E316F104D9F685CF8091DE06873010F08DE1A6CD17
:2045200090919D06891709F493CFBE016F5F7F4F0E942E1D81118CCF87E098CD9B8D9111ED
:2045400002C08AE193CDC10180759927892B09F427CE6091F8067091F9068091FA06909190
:20456000FB060E94B3390E94F1366730B8F68091F306843129F0823009F0E0CC27FCDECCA2
:20458000AFEA2A22662309F478C061506FA767EE76E08FA50E942E1D882371F20091F3064D
:2045A0008091D3069091D406A091D506B091D6068FA398A7A9A7BAA767EDC62E66E0D62E39
:2045C00077E9A72E76E0B72EF12CE12C9B8D892E912CC4010E2C02C0959587950A94E2F727
:2045E00080FF31C0D6019E964D905D906D907C90D197043109F045C0F50120A931A942A94E
:2046000053A9608D718D828D938D0E947835A30192010E947835D60150966D937D938D93C2
:204620009C935397B2E0EB120EC02FA138A549A55AA50E9478356093EF067093F006809327
:20464000F1069093F206FFEFEF1AFF0A24E0C20ED11C34E0A30EB11C43E0E416F10409F0EA
:20466000B8CF8091D8068FA3803509F03EC19B8D992309F46FC18FE1F9CCB091DE06BFA714
:2046800086CFF601408A518A628A738ADCCF8B8D882309F456CF4090D3065090D40660905D
:2046A000D5067090D60647E9A42E46E0B42E57EDC52E56E0D52EF12CE12C882E912CC40167
:2046C0000E2C02C0959587950A94E2F780FF43C0F701EE0FFF1FEE0FFF1FA1E0B0E0AC0FA5
:2046E000BD1FEA0FFB1F2081318142815381F501608D718D828D938D0E947835D6019E9677
:204700002D913D914D915C91D1970E947835F60166A777A780AB91ABF2E0EF120CC0A301BF
:2047200092010E94783560930D0770930E0780930F0790931007FFEFEF1AFF0A24E0A20E61
:20474000B11C34E0C30ED11C43E0E416F10409F0B6CF1FA686CFF50180A991A9A2A9B3A910
:20476000F60186A797A7A0ABB1ABE5CF9B8D992309F47ACEA091DB06AFA38091D3069091E4
:20478000D406A091D506B091D6068FA798ABA9ABBAAB97E9A92E96E0B92E27EDC22E26E026
:2047A000D22EF12CE12C9B8D892E912CC4010E2C02C0959587950A94E2F780FD18C0F5016A
:2047C000808D918DA28DB38DF60186A797A7A0ABB1ABFFEFEF1AFF0A24E0A20EB11C34E0A1
:2047E000C30ED11C43E0E416F10401F73DCE053381F3D6019E964D905D906D907C90D197F4
:20480000BFA1B11133C0F701EE0FFF1FEE0FFF1F21E030E02C0F3D1FE20FF31FD501D0966E
:204820002D913D914D915C91D39760817181828193810E947935A30192010E947935F601FF
:2048400066A777A780AB91ABF2E0EF12C2CF2FA538A949A95AA90E94793560930D0770935E
:204860000E0780930F0790931007B3CFA3019201D50158966D917D918D919C915B970E9458
:204880007935F60166A777A780AB91ABA2CF67EE76E087E0F5CDA7E9B6E0E7EDF6E090E05C
:2048A00080E04B8D242F30E0A901082E02C0559547950A94E2F740FD0AC058964D915D91BD
:2048C0006D917C915B97408B518B628B738B0196149634968330910539F73BCF8091D806CC
:2048E000823008F436CF8EE1C1CBAF8DA23091F5BFA1B11105C0EB8DE1112CC01F8E2AC0A2
:2049000020E030E0A9016091E3067091E4068091E5069091E6060E946E36882309F450CD04
:20492000FFA1FC3809F4B3C260F4F23009F47EC0F33009F47EC0F13069F43B8D31110AC0D0
:20494000DDCF2FA12E3809F4A2C208F49DC22F3809F49AC22BA121709BA190FFAFC2C1019E
:204960008E7DAF8DA111937E892B09F0E3C78E01035F1F4F89E0F80111928A95E9F722232E
:2049800009F4A0C28BA99CA9867B892B09F0D5C78091D706853311F08111CFC78091A2066D
:2049A0009091A306A091A406B091A506898B9A8BAB8BBC8B8091A00690919F06892B4091AE
:2049C000E3065091E4066091E5067091E6064D875E876F87788B84608D8B8091870685FF8A
:2049E00006C085E097E00E9427028111A9C7B80185E097E00E94991E8091310681110BC0B5
:204A00000E94DE03892B39F080E2809331060E94090E0E944F068CE0E5E0F7E0AFEAB6E0A3
:204A200001900D928A95E1F780E020CB4BA144604BA38B8D882309F484CDBFA9AB2FB0E0A3
:204A4000BCA7ABA7F9ADEF2FF0E02196FFAFEEAF219781E090E07C010FA802C0EE0CFF1C77
:204A60000A94E2F709AC02C0880F991F0A94E2F7E82AF92A2B8D822F90E08E219F21892B51
:204A800009F452C7FD01EE0FFF1FEE0FFF1FE952F94FAA0FBB1FAA0FBB1FA155B94F2D9167
:204AA0003D914D915C9166A577A580A991A90E9478354B015C012196EEADFFAD2197EE0F28
:204AC000FF1FEE0FFF1FE952F94F2196AEADBFAD2197AA0FBB1FAA0FBB1FA155B94F2D9102
:204AE0003D914D915C9166A577A580A991A90E9478356BAF7CAF8DAF9EAF27FEF1C04CE074
:204B000050E065E077E08FEA96E00E943B3A892B11F481E2ABCA8091DA068130B1F423E3E5
:204B200033E34BEC51E46091FC067091FD068091FE069091FF060E94D0386093FC0670931F
:204B4000FD068093FE069093FF064090FC065090FD066090FE067090FF06A5019401C50164
:204B6000B4010E94D0382B966CAF7DAF8EAF9FAF2B972BAD3CAD4DAD5EADCA01B9010E9494
:204B8000D0382F966CAF7DAF8EAF9FAF2F9720E030E040E850E4C301B2010E94D038A3017F
:204BA00092010E94D0382B962CAD3DAD4EAD5FAD2B970E9478352F962CAD3DAD4EAD5FAD8D
:204BC0002F970E9478356B017C0120E030E0A9010E946E3687FDABC6C701B6010E946F3919
:204BE0006B017C012F962CAD3DAD4EAD5FAD2F972B966CAD7DAD8EAD9FAD2B970E947935DA
:204C00000E946F399B01AC01C701B60190580E9478366B017C013FA1333021F4F7FAF09494
:204C2000F7F8F09420E030E0A901C301B2010E946E3687FF0FC0F7FAF094F7F8F094D30179
:204C4000C201B0588093FC069093FD06A093FE06B093FF06E89427F80BA51CA5000F111F84
:204C6000000F111F0951194FA70196016BAD7CAD8DAD9EAD0E94D0389B01AC01C501B401C0
:204C80000E94783520E030E040E05FE30E94D038D8016D937D938D939C93139721960EAD55
:204CA0001FAD2197000F111F000F111F0951194FA7019601C501B4010E94D0382BAD3CAD0B
:204CC0004DAD5EAD0E94793520E030E040E05FE30E94D038F80160837183828393833ACE70
:204CE000C12ED12CE122FD2083E2EF2809F4BEC9F1EF2F228091DA06813009F49CC0EBA5EC
:204D0000FCA5EE0FFF1FEE0FFF1FE951F94FC080D180E280F380A7019601C501B4010E9478
:204D200078352B013C012196EEADFFAD2197EE0FFF1FEE0FFF1FE951F94F80819181A281B9
:204D4000B3818BA79CA7ADA7BEA79C01AD016BAD7CAD8DAD9EAD0E9478354B015C01A30144
:204D60009201C301B2010E94D0382B013C01A5019401C501B4010E94D0389B01AC01C301A9
:204D8000B2010E9479350E946F394B015C01A7019601C701B6010E94D0386B017C012BA5FC
:204DA0003CA54DA55EA5CA01B9010E94D0389B01AC01C701B6010E9479350E946F396B0120
:204DC0007C01C092FC06D092FD06E092FE06F092FF06AC019B01C501B4010E9478354B0141
:204DE0005C01E894B7F82AE037ED43EA5BE3C501B4010E94903818160CF0ACCD20E030E0FA
:204E000040E05FE3C501B4010E94903818160CF480CE2FE632E143E85AE3C701B6010E941E
:204E2000D0389B01AC01C501B4010E94903818160CF090CD6ECE07ED16E0F12CE12CC6019E
:204E40000E2C02C0959587950A94E2F780FF12C023E333E34BEC51E4D80150966D917D91F5
:204E60008D919C9153970E94D038F801608B718B828B938BFFEFEF1AFF0A0C5F1F4F23E06C
:204E8000E216F104E1F63BCF3BA130613BA38FA18E58823018F44BA148604BA38B8D8823E0
:204EA00009F44FCB4CE050E065E077E08FEA96E00E943B3A892B09F04DCD2BCEC1018E7D50
:204EC0009C7F4FCD80918706F090A00681FF12C08FA18150833018F0FBA1F064FBA32B8D83
:204EE000222309F43CC13F8D323009F038C14BA140684BA38091F4069091F506A091F6067D
:204F0000B091F7068093AB069093AC06A093AD06B093AE068091D90680939806882311F090
:204F200088E08D8B8091E3069091E406A091E506B091E6068093A6069093A706A093A80633
:204F4000B093A9068D879E87AF87B88B8090000790900107A0900207B0900307A5019401B0
:204F60006091A2067091A3068091A4069091A5060E946E36BBA1B074EB2E811103C0EBA1A7
:204F8000E5FF1FC0FF2069F0FBA1F7FD0AC040E050E0BA01E11002C0B501A4018F2D0E9405
:204FA0007B1E8091000790910107A0910207B09103078093A2069093A306A093A406B093EB
:204FC000A506E1100CC08091A2069091A306A091A406B091A506898B9A8BAB8BBC8B809158
:204FE00004078093AA068091E1069091A006981751F049895A896B897C890E947B1E80913A
:20500000E1068093A0068D899091A006892B8D8BF090E00680919F068F1579F080913106D6
:20502000823029F00E94E31C8F2D0E9432099091E0069111ABC010929F068D8990919F0634
:20504000892B8D8B8091D706843099F480913106823079F0C090F806D090F906E090FA06D5
:20506000F090FB060E94E31C40E0C701B6010E94B51C8091DC0680939B068091DA06809351
:2050800099062F8D233071F58091DD0680939C06811108C010920D0710920E0710920F07D4
:2050A00010921007C0900D07D0900E07E0900F07F0901007A70196016091D3067091D4065D
:2050C0008091D5069091D6060E946E36882351F0C092D306D092D406E092D506F092D606A3
:2050E0000E94151D8091DE0690919D06981769F080939D068CE0FE013196ABEBB6E0019076
:205100000D928A95E1F70E94151D8091DB0680939A068091D706863209F481C008F03CC0A8
:205120008C3109F445C08E3109F442C08A3009F058C067EE76E08FA50E941A1D80919D06BB
:205140003FA538134EC08CE0E7EEF6E0ABEBB6E001900D928A95E1F70E94151D42C080E171
:20516000F812C8CE9BA19074809197068150833038F4992309F4BECE9BA190629BA3BACEB8
:205180009111B8CEABA1A062ABA3B4CE80919F06892B80939F0651CF8C3509F446C0863607
:2051A00009F449C08832E9F46FEA76E087E03AC08D8981608D8B4F8D442329F0B80185E0B9
:2051C00097E00E94991EB80187EE96E00E94991E8CE0E7EEF6E0AFEAB6E001900D928A956D
:2051E000E1F78091D80680939706803509F4F1C2BF8DB23009F0EDC2813029F5BE01635FAD
:205200007F4F85E097E00E94991E8CE0E5E0F7E0AFEAB6E001900D928A95E1F7DAC26FEA38
:2052200076E086E00E941A1DDCCF8CE0E5E0F7E0A7ECB6E08DCFE7ECF6E08CE0DF011D92FD
:205240008A95E9F789CF811105C08D8981608D8BB801D7CF8250823008F097C28091FC064A
:205260009091FD06A091FE06B091FF068F8F98A3A9A3BAA3AFA994E0A99F70011124F701DB
:20528000E155F94FF8A7EFA397012951394F38AB2FA7D9014D905D906D907C90208131810C
:2052A00042815381C301B2010E9479356BAB7CAB8DAB9EABE9ADB4E0EB9F800111249801CF
:2052C0002155394F38AF2FABC8018951994F9AAF89AFDC018D909D90AD90BC90F9012081B8
:2052E000318142815381C501B4010E9479356BAF7CAF8DAF9EAF77FA709477F87094D5010E
:20530000C401B0588B8F9C8FAD8FBE8FF701EB5FF84F2BA93CA94DA95EA9608171818281DD
:2053200093810E9478356B017C01F801EB5FF84F2BAD3CAD4DAD5EAD6081718182819381E7
:205340000E9478354B015C01A7019601C301B2010E94D0386BA77CA78DA79EA7A50194010C
:205360006B8D7C8D8D8D9E8D0E94D0389B01AC016BA57CA58DA59EA50E9479356BA77CA7C9
:205380008DA79EA7A5019401C301B2010E94D0384B015C01A70196016B8D7C8D8D8D9E8D0A
:2053A0000E94D0389B01AC01C501B4010E9478352BA53CA54DA55EA50E94F8356B017C01D2
:2053C0009BA192FF68C12DEB37E346E055EBC701B6010E94903887FD0AC02BED3FE049EC9C
:2053E00050E4C701B6010E9478356B017C0180907B0690907C06A0907D06B0907E062F8D5C
:2054000038A149A15AA1CA01B9010E947935A50194010E947835A50194010E94D0380E94E8
:205420006F394B015C0120E030E040E05FE3C701B6010E94D0382F8D38A149A15AA10E9464
:20544000D0389F77A50194010E9478360E945D370E94F1367CA76BA7DB01AB2B09F4CECE24
:205460001D8990E080E00E9420374B015C0113FF0EC0AC019B016D857E858F8598890E941F
:20548000D0386D877E878F87988B177F1D8BA5019401C701B6010E9478366BA37CA38DA32D
:2054A0009EA32496EFAD2497B4E0EB9FC00111248C010155194F8B5F984FD8012D913D9105
:2054C0004D915C91FC0160817181828193810E947835A50194010E9478362B966CAF7DAF38
:2054E0008EAF9FAF2B972BA13CA14DA15EA1CA01B9010E94D0389B01AC0160E070E080E061
:2055000090E40E9478356B017C012BEA3AEA4AE25EE36BA17CA18DA19EA10E94D0384B01AD
:205520005C0120E030E040E850E4C701B6010E9479359B01AC01C501B4010E94D0382396AC
:205540006CAF7DAF8EAF9FAF239720E030E040E05FE3C701B6010E94D03827966CAF7DAF20
:205560008EAF9FAF27971F8E22242394312CEBA5FCA5E215F30509F441CEFF8DFC3008F0FF
:205580009EC0A301920123966CAD7DAD8EAD9FAD23970E94D0386B017C012B8D3C8D4D8D4B
:2055A0005E8D27966CAD7DAD8EAD9FAD27970E94D0389B01AC01C701B6010E9479357B017D
:2055C0006C01A301920127966CAD7DAD8EAD9FAD27970E94D0384B015C012B8D3C8D4D8D34
:2055E0005E8D23966CAD7DAD8EAD9FAD23970E94D0389B01AC01C501B4010E9478352B019A
:205600003C012F8D2F5F2F8F470156018B8E9C8EAD8EBE8EA30192016BA97CA98DA99EA9EF
:205620000E947935EFA1F8A560837183828393832B8D3C8D4D8D5E8D6BAD7CAD8DAD9EADEF
:205640000E947935AFA9B8AD6D937D938D939C9313972B962CAD3DAD4EAD5FAD2B97F801EE
:2056600060817181828193810E947935D8016D937D938D939C931397BE01635F7F4F8FEA46
:2056800096E00E94991E809132068111BECDBFEF2B1A3B0A6CCF2DEB37E346E055E3C7010A
:2056A000B6010E946E3618160CF4A1CE2BED3FE049EC50E4C701B6010E94793596CEB101CB
:2056C00090E080E00E9420372BA13CA14DA15EA10E94D0386B017C010E9473366B8F7C8F88
:2056E0008D8F9E8FC701B6010E9461394B015C01AFA5B8A9CD90DD90ED90FC90F7FAF09400
:20570000F7F8F094A9ADBAAD8D919D910D90BC91A02D8F8F98A3A9A3BAA3A70196016B8D1D
:205720007C8D8D8D9E8D0E94D0382B013C012F8D38A149A15AA1C501B4010E94D0389B01CD
:20574000AC01C301B2010E9479352B013C01A7019601C501B4010E94D0386B017C012F8D63
:2057600038A149A15AA16B8D7C8D8D8D9E8D0E94D0389B01AC01C701B6010E9478356B8F6A
:205780007C8F8D8F9E8F1F8E45CF8D8984608D8B80913106823009F438CD0E94E31C809134
:2057A0003206811116C010923606FBA1F3FB882780F90E94AA0286B1807290911706891764
:2057C00019F184E00E940E020E94C71980E00E94AA028091DF0680939E06882311F40C947C
:2057E00036200E94E31C80919E0690913106833009F04EC0923029F088E00E941E020E9444
:20580000C71910929E0610C9B80185E097E00E94991E81E08093300682E00E941E020E942B
:20582000C719809132068111D4CF809131068111F6CF80913006813039F52BA124FF20C076
:205840008CE0E8E1F6E0A4E2B6E001900D928A95E1F71092300680E00E94AA020E94C719F2
:205860000E94B20D0E9487090E9449030E94080980913606882309F4C8CC0E948109A9CFC7
:2058800085E00E940E02E5CF81E080933606E1CF81E08093970610929B0610929A061092A5
:2058A000980610929D061092A00610929F0684E6809338068093390680933A069230A1F0C3
:2058C0006BEB76E080E00E942E1D882311F40C949C220E94151D40E050E0BA0180E00E94E0
:2058E000A20A80E00E94320985E792E00E949D078CE092E00E949D070E94030982CF81E017
:205900000C94362082E00C94362088E10C94362086E20C94362089E10C94362084E00C9418
:2059200036208BE10C94362080E20C94362082E20C94362084E20C94362080E10C9436204A
:205940008FE00C943620CF93DF93C0E08C2F0E94F41C811114C0109211078EE30E94700658
:205960000E948C068AE30E94700687E00E94AF07C13019F4DF91CF910895C1E0E7CF8091DC
:2059800011078823A9F30E94FB1ED82F8EE30E9470060E948C068AE30E9470068D2F0E9446
:2059A000BB07E6CF1F920F920FB60F9211242F933F934F935F936F937F938F939F93AF9371
:2059C000BF93EF93FF930E949E02882321F080FF13C00E94E50DFF91EF91BF91AF919F91AD
:2059E0008F917F916F915F914F913F912F910F900FBE0F901F90189582FF06C0809113063F
:205A0000826080931306E7CF81FFE5CF809113068860F7CF1F920F920FB60F9211242F9307
:205A20003F934F935F936F937F938F939F93AF93BF93EF93FF9380913106813049F080916D
:205A40001406811105C00E94E50D81E00E940E02FF91EF91BF91AF919F918F917F916F912E
:205A60005F914F913F912F910F900FBE0F901F9018951F921FB61F9211248F939F939BB153
:205A80008091F2018C71937E892B8BB915BC9F918F911F901FBE1F9018951F920F920FB6DC
:205AA0000F9211240F931F932F933F934F935F936F937F938F939F93AF93BF93EF93FF9344
:205AC0008091F401811101C29BB180910402807E9F71892B8BB98BB1837E90910302892BEB
:205AE0008BB98091020286BD82E085BD81E08093F40178948091160290911702892B09F0E1
:205B0000AAC08091180290914402981709F4CAC1E09118022E2F30E087E0E89FF001112446
:205B2000E65EFD4FF0931702E0931602828193819093890080938800808191819093120206
:205B400080931102E481809113028E1761F1E093130282E1E89FF0011124E95BFD4FF093F2
:205B60001502E093140284859585A685B785B695A795979587958093FD019093FE01A093C6
:205B8000FF01B09300028093F9019093FA01A093FB01B093FC018093F5019093F601A093D0
:205BA000F701B093F801A0911402B091150250968C9150979091F30189278093040287E0E3
:205BC000829FF001839FF00D1124E65EFD4F25814D915D916D917C911397022E04C07695A9
:205BE0006795579547950A94D2F74093050250930602609307027093080214964D915D9136
:205C00006D917C911797022E04C076956795579547950A94D2F74093090250930A026093E1
:205C20000B0270930C0218968D919D910D90BC91A02D04C0B695A795979587952A95D2F77A
:205C400080930D0290930E02A0930F02B093100286810E944009809130068130B1F486B190
:205C6000807290911706891781F0109230068CE0E8E1F6E0A4E2B6E001900D928A95E1F7BD
:205C800080911306806480931306109203028091F5019091F601A091F701B091F8014091D0
:205CA0000502509106026091070270910802840F951FA61FB71F8093F5019093F601A093B7
:205CC000F701B093F801E0911402F09115024485558566857785481759076A077B0728F518
:205CE00024E020930302841B950BA60BB70B8093F5019093F601A093F701B093F80180919B
:205D0000180690911906A0911A06B0911B06208925FFEEC00197A109B109809318069093A7
:205D20001906A0931A06B0931B068091F9019091FA01A091FB01B091FC01009109021091BE
:205D40000A0220910B0230910C02800F911FA21FB31F8093F9019093FA01A093FB01B0933B
:205D6000FC01481759076A077B0738F520910302286020930302841B950BA60BB70B80938C
:205D8000F9019093FA01A093FB01B093FC0180911C0690911D06A0911E06B0911F062089A1
:205DA00026FFAAC00197A109B10980931C0690931D06A0931E06B0931F068091FD019091EE
:205DC000FE01A091FF01B091000200910D0210910E0220910F0230911002800F911FA21F6A
:205DE000B31F8093FD019093FE01A093FF01B0930002481759076A077B0738F52091030291
:205E0000206120930302841B950BA60BB70B8093FD019093FE01A093FF01B09300028091DB
:205E2000200690912106A0912206B0912306208927FF66C00197A109B109809320069093E4
:205E40002106A0932206B093230680913106843039F48091370690910302892380930302F3
:205E6000809111029091120201979093120280931102892B69F4109217021092160280913D
:205E800018028F5F80931802863011F410921802809103029091F2018927809303021092C2
:205EA000F40113C00E947E0DE0911402F09115028189882339F01092B3008091B0008F77D4
:205EC0008093B00084E00E941E02FF91EF91BF91AF919F918F917F916F915F914F913F9139
:205EE0002F911F910F910F900FBE0F901F9018950196A11DB11D11CF0196A11DB11D55CFE1
:205F00000196A11DB11D99CF1F920F920FB60F9211242F933F934F935F936F937F938F936B
:205F20009F93AF93BF93EF93FF93E091C600E13251F160F4E83191F0E7FF51C0E458ED31BC
:205F400078F4F0E0E15AF54C0C941B3AEF33C9F082E0EE3789F70E941E0202C00E94E50D9A
:205F6000FF91EF91BF91AF919F918F917F916F915F914F913F912F910F900FBE0F901F9007
:205F8000189581E0E8CF88E0E6CF80E2E4CF8091310685FFE5CF80E4DECF81E00E9405026F
:205FA000DFCF82E0FBCF84E0F9CF88E0F7CF80E1F5CF80E2F3CF80E4F1CF80E8EFCF81E0B9
:205FC0000E94FC01CDCF82E0FBCF84E0F9CF88E0F7CF80E1F5CF80E2F3CF80E4F1CFA09162
:205FE000F00181E08A0F813809F480E09091F101981709F4B5CFB0E0A159BE4FEC93809334
:20600000F001AECF8F938FB78F939F93EF93FF9380916E01E82FF0E0EB5FFE4F9081909310
:20602000C6008F5F893609F480E080936E0190910401981305C08091C1008F7D8093C100C6
:20604000FF91EF919F918F918FBF8F911895CDB7DEB765970FB6F894DEBF0FBECDBF809158
:20606000C00082608093C0001092C50080E18093C4008091C10088698093C10090E080E0A5
:206080000E945A048A3009F4DBC087E00E94AF078FEF0E944F1D0E94F7078AB18C618AB958
:2060A000209A8AB1806E8AB9809181008F7E809381008091810088608093810080918000E8
:2060C0008C7F80938000809180008F708093800080916E00887F80936E0014BC15BC809146
:2060E0006E00816080936E0087B1887F87B988B1876088B980916C00876080936C008091FC
:206100006800826080936800E8E1F6E08CE0DF011D928A95E9F7789410923106809187069E
:2061200084FF03C081E08093310631E3232E36E0332E47E9A42E46E0B42E99249394809193
:20614000310691E1F10111929A95E9F78093310684E6809338068093390680933A068CE0DC
:20616000A4E2B6E01D928A95E9F7109230061092130610921406109215061092160680917A
:20618000F0018093F10180E4F50111928A95E9F76BEB76E080E00E942E1D811103C087E058
:2061A0000E94AF070E944E093B9A43980E94DB023D98459A80E00E94AA020E9487090E9429
:2061C000B20D0E9449030E94810984EB90E00E949D078091870683FF10C00E94BC028823C6
:2061E00061F09092310685E792E00E949D0784E192E00E949D070E940309809131068178C5
:2062000059F185E792E00E949D078FE492E00E949D070E9403099092310610E000E022E00C
:20622000822E9091F1018091F001981336C40E9468060E94C71980913206882391F37FCF9C
:2062400045E550E061E070E082E496E00E946204892B09F022CF19CF109231060E94A32C9F
:20626000DCCF843209F0E9C39D8A80911207833429F0BCF48823B9F18432C9F49091130744
:20628000911140C0833409F4FBC00CF044C0843271F580913106887109F0C7C30E94F7076D
:2062A00026C08A3431F1883549F3873439F390913106923008F0B9C3893409F4A3C10CF090
:2062C000FDC0833209F40EC1883409F45AC110E0BE016F5E7F4FCE0145960E945201811131
:2062E0002EC212E014C08CE191E00E949D0710E00EC0809131068F7D09F097C38091130734
:206300008D3311F013E003C00E94FB1E182F812F0E94BB07EAC3873499F0883541F78091F9
:206320003106813021F785E792E00E949D078DE392E00E949D070E94030910923106D7CFE4
:2063400086E191E00E949D07809197068C3838F082E191E00E949D07809197068A580E9439
:20636000780783E091E00E949D0780919D068A5C0E94780783E091E00E949D0780919B06FD
:206380008F5E0E94780783E091E00E949D0780919906F5E1F81B8F2F0E94780783E091E089
:2063A0000E949D0780919A06865A0E94780783E091E00E949D07809198062EE5281B822F15
:2063C0000E94780780919E06882391F086E091E00E949D0780919E06833039F08E3111F04D
:2063E000823031F40E94780703C080E30E94700686E091E00E949D078091A006803131F0C1
:206400008032D1F1811105C085E301C083E30E94700686E091E00E949D0780919F0688238C
:2064200069F188E30E9470068FE091E00E949D078091AA060E9478078CE091E00E949D0754
:206440006091A6067091A7068091A8069091A9060E94430789E091E00E949D076091A206BD
:206460007091A3068091A4069091A50640E00E9499060E9403093BCF84E3C9CF89E3D2CFC6
:2064800010913106123059F40E94E50D85E792E00E949D078CE292E00E949D07EACF1111DC
:2064A000C4C28092310685E792E00E949D0785E392E00E949D070E94030929CF823509F46F
:2064C000F3C0833509F48CC08E3409F000CF8D8A8091130710E0882309F417C19111A5C2C3
:2064E00011E0F6CE8091130781110CCF00E0BE016F5F7F4F802F0E942E1D182F811104C0DB
:2065000087E00E94AF0703CF80E091E00E949D07063039F0073091F186E3800F0E947807A2
:2065200004C08DEF90E00E949D078AE30E947006CE0101960E945F070E9403090F5F08301E
:20654000B1F684EF90E00E949D0787EC96E00E945F070E9403098EEE90E00E949D076091A9
:20656000D3067091D4068091D5069091D6060E9451070E9403090E940809B9CE8AEF90E0B3
:20658000D2CF8091870615E084FFC1CE84E080933106809113078111B5CE0E94D00284E0EF
:2065A0000E94D41A83E00E94D41A0E94C7198091320681119CCE0E9481090E9449030E94D5
:2065C000DB0210913206111192CE109231060E947E0D8091130781118ACE0E94A32C97CE92
:2065E000809113078C3409F08DCE80911407803509F088CE80911507811184CE80E80E9411
:206600001E0275CE8D8A80911307811130C040E550E06EEA73E081E197E00E946204892BBE
:2066200051F41092110740E550E061E177E08EEA93E00E940E048AED90E00E949D070E94FF
:206640008C060E94030984ED90E00E949D0786E50E9470068CE20E9470068FE00E9478073A
:206660008CE20E94700680E80E94780702CF93E09D8B8D3309F046CE83E0282F30E0F9010E
:20668000EF5EF84F9081225F384FD9019C938F5F9111F3CF8D8B40E550E061E177E08EEA74
:2066A00093E00E940E0423CE80911307833509F029CE80911407843509F024CE80911507F2
:2066C0008D3309F01FCE8091170781111BCE80911607843239F08A32A9F0833209F012CE7A
:2066E00082E001C081E00E944F1D85E792E00E949D0789EF91E00E949D070E9403090E9465
:20670000E50DF5CD8FEFEFCF11E0812F0E94F41C811106C087E00E94AF071130A9F7E7CD8A
:2067200081ED90E00E949D07812F0E9478078DE30E9470060E948C060E94AB07EECFED8921
:2067400081E08E0F8D8BF0E0EF5EF84F90819D3309F0D8CD112389F1482F50E0282F30E084
:20676000F901EF5EF84F9081241B350BF901EF5EF84F90838F5F9111F1CF8D8B0E94FB1E37
:20678000182F8111C4CD69897A898B899C890E94B3392B013C010E94E31CC301B2010E94B0
:2067A000F136B1E56B9FC001112440E550E061E177E09D5F0E940E04AACDBE01635F7F4FB8
:2067C000CE0145960E945201882309F48ACDED89F0E0EF5EF84F8081811194CDC988DA889A
:2067E000EB88FC8820E030E04FE753E4C701B6010E94903818160CF485CD4D845E846F8416
:206800007888C701B6010E94F136062F20E030E0A901C301B2010E946E3687FD08C10436FD
:2068200008F445C0045680E00330C0F5E02FF0E0EE0FFF1FEE0FFF1F823081F0833039F1A0
:20684000813049F0EE5BF94F40825182628273820E944D045CCDE25BF94FF6CFCF01865A39
:20686000994F7C0120E030E040E752E4C301B2010E94D03820E030E040E752E40E94D0380E
:20688000D7016D937D938D939C931397E1CFEA59F94F77FA709477F87094D6CF8F5F0A3027
:2068A00008F430CD843009F42DCD0A50BDCFC301B2010E94B3390E94F136013208F022CD66
:2068C000E02FF0E0E458F54C0C941B3A633008F4B0C060937206BCCF60937506B9CF609389
:2068E00073060E943206B4CF60937406FACF80918706662321F0846080938706A9CF8B7F4E
:20690000FBCF80918706662311F08064F5CF8F7BF3CF80918706662339F080688093870639
:2069200080E00E94AA0294CF8F77F8CF609376068FCF40927706509278066092790670928A
